:020000040800F2
:1000000000000220451B00088D1B00088D1B000806
:100010008D1B00088D1B00088D1B000800000000D0
:100020000000000000000000000000008D1B000820
:100030008D1B0008000000008D1B00088D1B0008B0
:1000400000000000000000000000000000000000B0
:1000500000000000000000000000000000000000A0
:100060000000000000000000000000000000000090
:100070000000000000000000000000000000000080
:100080000000000000000000000000000000000070
:100090000000000000000000000000000000000060
:1000A0000000000000000000000000000000000050
:1000B0000000000000000000000000000000000040
:1000C0000000000000000000000000000000000030
:1000D0000000000000000000000000000000000020
:1000E0000000000000000000000000000000000010
:1000F0000000000000000000000000000000000000
:1001000000000000000000000000000000000000EF
:1001100000000000000000000000000000000000DF
:1001200000000000000000000000000000000000CF
:1001300000000000000000000000000000000000BF
:1001400000000000000000000000000000000000AF
:10015000000000000000000000000000000000009F
:10016000000000000000000000000000000000008F
:10017000000000000000000000000000000000007F
:08018000000000000000000077
:100188000348044B834202D0034B03B1184770471E
:100198003004002030040020000000000548064913
:1001A8000B1AD90F01EBA301491002D0034B03B17D
:1001B8001847704730040020300400200000000079
:1001C80010B5064C237843B9FFF7DAFF044B13B197
:1001D8000448AFF300800123237010BD30040020D1
:1001E80000000000A41B000808B5044B1BB104491B
:1001F8000448AFF30080BDE80840CFE700000000E6
:1002080034040020A41B0008002301461A4618469F
:1002180000F026B938B5084B084D5B1B9C1007D079
:10022800043B1D44013C55F804399847002CF9D18A
:10023800BDE8384001F0B8BCAC280008A828000880
:1002480070B50D4E0D4D761BB61006D0002455F82E
:10025800043B01349847A642F9D1094E094D761B53
:1002680001F09CFCB61006D0002455F8043B01347C
:100278009847A642F9D170BDA0280008A028000818
:10028800A8280008A0280008844641EA000313F0C3
:1002980003036DD1403A41D351F8043B40F8043B85
:1002A80051F8043B40F8043B51F8043B40F8043B48
:1002B80051F8043B40F8043B51F8043B40F8043B38
:1002C80051F8043B40F8043B51F8043B40F8043B28
:1002D80051F8043B40F8043B51F8043B40F8043B18
:1002E80051F8043B40F8043B51F8043B40F8043B08
:1002F80051F8043B40F8043B51F8043B40F8043BF8
:1003080051F8043B40F8043B51F8043B40F8043BE7
:1003180051F8043B40F8043B403ABDD2303211D387
:1003280051F8043B40F8043B51F8043B40F8043BC7
:1003380051F8043B40F8043B51F8043B40F8043BB7
:10034800103AEDD20C3205D351F8043B40F8043B87
:10035800043AF9D2043208D0D2071CBF11F8013B85
:1003680000F8013B01D30B8803806046704700BF4B
:10037800082A13D38B078DD010F003038AD0C3F15A
:100388000403D21ADB071CBF11F8013B00F8013B3C
:1003980080D331F8023B20F8023B7BE7043AD9D3FB
:1003A800013A11F8013B00F8013BF9D20B780370D0
:1003B8004B7843708B78837060467047830730B5FD
:1003C80048D0541E002A3FD0CAB2034601E0013C7F
:1003D8003AD303F8012B9D07F9D1032C2DD9CDB2BF
:1003E80045EA05250F2C45EA054536D9A4F1100242
:1003F80022F00F0C03F1200EE6444FEA121C03F121
:10040800100242E9045542E9025510327245F8D10A
:100418000CF1010214F00C0F03EB021204F00F0CA4
:1004280013D0ACF1040323F003030433134442F85C
:10043800045B9342FBD10CF003042CB1CAB21C44F8
:1004480003F8012B9C42FBD130BD64461346002CB7
:10045800F4D1F9E703461446BFE71A46A446E0E795
:1004680070B4184C2568D5F848411CB365681F2D31
:1004780025DC38B9AB1C0135656044F82310002031
:1004880070BC704704EB850C0228CCF88820D4F89F
:1004980088614FF0010202FA05F246EA0206C4F842
:1004A8008861CCF80831E5D1D4F88C311343C4F80D
:1004B8008C31DFE705F5A674C5F84841D6E74FF05B
:1004C800FF30DDE79C280008024B02781A700020F4
:1004D800704700BF5004002010B40346044C006865
:1004E80059689A68DB680FC4002010BC704700BFC9
:1004F80054040020012912D910B54A1E0378094C6A
:10050800D2B299182E29C8BFC3F12E0200F10101F9
:10051800C8BFD2B2E018FFF7B7FE002010BD012017
:10052800704700BF6404002010B5084C00F060FD5F
:1005380014F8481B204600F053F900F061FD2246EC
:100548007220102100F090FC002010BD5004002003
:1005580070B5154D05F1450405F6E50600F048FDB2
:10056800204615F8011F00F03BF900F049FDA446AC
:10057800BCE80F00A44620616161A261E361BCE8A8
:100588000F003034B44244F8100C44F80C1C44F802
:10059800082C44F8043CE1D1044A7220102100F0F0
:1005A80063FC002070BD00BF63040020A804002085
:1005B80008B503781B0103F11002B2F50A6F01D9DF
:1005C800012008BD034A10211A44722000F04CFC97
:1005D800002008BDA804002008B511B1094B027815
:1005E8001A7500F005FD084901F1440000F026F9EC
:1005F80000F006FD054A7220102100F035FC0020AD
:1006080008BD00BF5004002064040020A804002096
:1006180010B500F0EDFC084901F1580420460431FA
:1006280000F0C8F800F0ECFC22467220102100F01F
:100638001BFC002010BD00BF5004002010B50D4C5D
:100648002E22002104F11400FFF7B8FE4FF40A62CD
:10065800002104F15800FFF7B1FE2346002003F8FB
:10066800480BA064C3E90100D860C4E90100C4E9EB
:10067800030010BD5004002070B52E220021194837
:10068800FFF79CFE184901F1100001F10F0500F079
:1006980027F905F1450405F6E50600F0A9FC204612
:1006A80015F8011F00F09CF800F0AAFCA446BCE86D
:1006B8000F00A44620616161A261E361BCE80F00FC
:1006C8003034B44244F8100C44F80C1C44F8082C9C
:1006D80044F8043CE1D1054A7220102100F0C4FB23
:1006E800002070BD6404002054040020A8040020E9
:1006F80008B500F0D9FB00F019FC00F057FC2E22D9
:1007080000212048FFF75AFE4FF40A6200211E48D4
:10071800FFF754FE00F0BAFA1C4A10216D2000F0D1
:10072800EBFA1B4A0121622000F0E6FA194A01217E
:10073800652000F0E1FA184A1021702000F0DCFA78
:10074800164A0121742000F0D7FA154A01216720C2
:1007580000F0D2FA134A0121782000F0CDFA124AAB
:100768001021692000F0C8FA104A0121632000F026
:10077800C3FA0F4A0121642000F0BEFA00F0D8FA4B
:10078800FCE700BF64040020A8040020FD04000862
:10079800D104000831050008E105000859050008E2
:1007A800B905000845060008E10400081906000814
:1007B8008106000830B500238DB02A220D46044674
:1007C800194601A80093FFF7F9FD2946684600F08D
:1007D80087F86946204600F031F80DB030BD00BFFB
:1007E80041F3000C41F3C01341F340020CF0AA3C62
:1007F8008CEA030C02F0CC3282EA0C0C41F3800242
:1008080041F3C00302F0F03203F0FF2382EA0C0246
:100818005A4041F300131B0C1B04534041F3401290
:1008280010B441F3801182EA030461404A40C0E9F0
:100838000034826010BCC160704700BF2DE9F043EE
:10084800264D01F1FF3E00F1100301F12D041EF8C1
:10085800012F42F3000042F3C01C42F3400100F0B4
:10086800AA3080EA0C0001F0CC3142F3800C414000
:100878000CF0F03C42F3C0008CEA010C00F0FF20C1
:1008880042F3001180EA0C002940414042F3401035
:1008980081EA000642F380127240504043E90202A6
:1008A80043E9041653F804CC53F8109C53F80C8C05
:1008B80053F8087CC3F800904E464046624674459B
:1008C800C3F804809F60C3F80CC01E6158619F6123
:1008D800DA6103F13003BAD1BDE8F0830000FFFF0D
:1008E8002DE9F04FA3B002AD074688463E2200210D
:1008F8002846FFF763FDDFF8ACE007F11D0301931D
:10090800BEE80F000DF1480CACE80F00BEE80F0080
:10091800ACE80F00BEE80F00ACE80F009EE80F003F
:10092800ACE807002E2200213846ACF80030FFF76B
:1009380045FD08F1100621AC4FF0000B16F8013DFB
:100948000DF1460A8BEA030B0DF106093AF8021F6E
:10095800584600F029F8A24529F8020FF6D1019966
:100968000DF1420211F8013D32F802094340954267
:100978004B70F7D1BDF808303B70464502D097F868
:100988001DB0DBE731687268B368F068C7F82A0001
:10099800C7F81E10C7F82220C7F8263023B0BDE8D4
:1009A800F08F00BFBC1B00082DE9F043C0F381099C
:1009B800C0F30118C9F10202A9F10203C8F1020447
:1009C8001343A8F10202C9F10107224309F1FF34D8
:1009D8003C43DB178C46DB4301F07F01E41721EA37
:1009E800040403EA41036340C8F1010708F1FF3436
:1009F8003C43D217D243E41700F0030621EA04046B
:100A080002EA41026240B71EC6F102042743A9F177
:100A18000304C9F1030944EA090481EA4105E4171A
:100A280025EA04045C40A8F10303C8F1030843EA7B
:100A38000803DB1725EA03035FFA80FE5340C0F37F
:100A480081109AB2A0F10208C0F10203C6F10109AF
:100A580048EA0308731E43EA0903FF17FF43DB173D
:100A680007EA410721EA0303C0F101097B40471E59
:100A780047EA09074FEAE878FF176FEA080808EA23
:100A8800410821EA0701F71EC6F103063E43F6179F
:100A980025EA0606A4B2734083EA840383EA0213B4
:100AA800121182EA9414C21EC0F103000243D21745
:100AB80081EA080125EA02024A404CF3C01C92B2BE
:100AC8000CEA5E0183EA82130CEACE1C84EA9202E5
:100AD80083EA0C034A4012B2DBB243EA02231AB299
:100AE800110A43F3C03341EA03611B0A9800D2B2EA
:100AF80040EA91704A4080EA030482EA8102D80001
:100B080082EAC10240EA51701B0182EA0112604088
:100B180043EA11734340110A41EA036102F0FF00FE
:100B2800484080EA810080EAC10080EA011080B272
:100B3800BDE8F0830120704738B50A4B0A4D1C7890
:100B4800722000F079FA230904F00F04E85C00F041
:100B580073FA285D00F070FA0A2000F06DFA0020A0
:100B680038BD00BF480D00208C280008F0B51C4D8A
:100B78002E6816F0FF0799B015D00022134605EB32
:100B8800031103EB4303603301326B44D2B20C7997
:100B98008868097C03F8604CBA4203F85F0C03F8D4
:100BA8005E1C1346EBDB06EB4606F6B2722000F03D
:100BB80043FA7EB16D460B4F2E4415F8014B2309BD
:100BC80004F00F04F85C00F037FA385D00F034FAEE
:100BD800B542F2D10A2000F02FFA002019B0F0BD7A
:100BE800480D00208C28000800284DDD10B59446DB
:100BF80001EB400E15E0A2F14103052B2FD8373A3F
:100C0800D3B2A0F13002D4B2092C8CF8003016D837
:100C180043EA02138CF8003002318E450CF1010CC6
:100C28001BD04A780878A2F13003DBB2092BE2D84E
:100C38008CF80030A0F13002D4B2092CE8D9A0F128
:100C48004102052A14D83738023143EA00138E4589
:100C58008CF800300CF1010CE3D1002010BDA2F19A
:100C68006103052B0ED8573AD3B28CF80030E1E770
:100C7800A0F16102052A05D8573843EA00138CF819
:100C88000030C9E7012010BD00207047164B1A68D4
:100C98001F2A27DC154810B403EB02110024C1E910
:100CA8000240501C4FF0760C202881F804C00C74C8
:100CB800186015D003EB0010772101710C490474FA
:100CC800C0E90241911C2029196009D003EB0111E8
:100CD8007920087107480C74C1E9024003321A6090
:100CE80010BC7047704700BF480D00203D0B00083E
:100CF800750B0008410B000810B40C4C23681F2B1F
:100D080010DC3F290ED804EB031C01338CF80400D7
:100D180000208CF810002360CCF8081010BCCCF828
:100D28000C207047012010BC704700BF480D002000
:100D38002DE9F0414A4FB0B000F06AF9396800294E
:100D480027DD00233D1D01E08B421FD01C0101332C
:100D58002A5D8242F8D13B191A7CD2071FD49B68BE
:100D68005B0049D010AE002507EB040808E00D2809
:100D78000CD0D8F8083006F8010BB5EB430F3BD27E
:100D880000F046F90A2805F10105F0D130B0BDE8B8
:100D9800F081FBD000243B191A7CD207DFD500F084
:100DA80037F9054600F034F9A0F13003DBB2092B1E
:100DB8000CD9A0F14103DBB2052B47D9A0F161039F
:100DC800DBB2052BE2D8A0F15703DBB2A5F1300264
:100DD800D1B2092936D9A5F14102D2B2052A39D9A9
:100DE800A5F16102D2B2052AD0D8573D43EA0513CE
:100DF800DBB23A199360B3E700F00AF90A2801D088
:100E08000D28C3D13C446A46A56810A92846FFF7B7
:100E1800EBFE0028BAD1E9B2E368124D684698475C
:100E280004467A2000F008F9C4F3071304F00F040D
:100E3800E85C00F001F9285D00F0FEF80A2000F0F7
:100E4800FBF8A3E743EA0213DBB2D2E7A0F13703CA
:100E5800DBB2BBE7373D43EA0513DBB2C9E700BFA6
:100E6800480D00208C280008D2B170B50E461446F3
:100E780000F0E2F87EB10B4D264423781B09E85CAC
:100E880000F0DAF814F8013B03F00F03E85C00F017
:100E9800D3F8A642F1D1BDE870400A2000F0CCB8E2
:100EA800704700BF8C28000830B595B00324012294
:100EB80002204FF480034FF4A025CDE90E03CDE9BD
:100EC80008450B920C24C4210422072308A8CDE965
:100ED8001041CDE9122300F0C1F800B1FEE7044645
:100EE80001210F20CDE9020100220023214602A89A
:100EF800CDE90423069400F0C9FA094B01945A6B12
:100F0800084842F040025A635B6B074A026003F0EC
:100F180040030193019B447100F0F2FD15B030BD10
:100F2800003802404C0F00200008065030B501225E
:100F380089B04FF4C06002210223CDE90201CDE956
:100F48000423174D174800240723009406932B6B9E
:100F580043F001032B632B6B03F0010302A90093F9
:100F6800009B00F061FB01946A6C0F4B42F0100289
:100F78006A646A6CDC6102F010020192019A4FF413
:100F880016410C22A5F5943503F10C00C3E9035171
:100F9800C3E90544C3E9082400F07CFC09B030BD6E
:100FA80000380240000002404C0F002030B589B0E4
:100FB8000D4B0E48002201921A6B42F001021A638F
:100FC8001B6B03F00103019300224FF480540125A9
:100FD800022302A9CDE90423CDE90245019B00F0D3
:100FE80023FB09B030BD00BF0038024000000240BA
:100FF800024801224FF4805100F048BC0000024032
:10100800024800224FF4805100F040BC000002402A
:1010180010B5084C82B041F2883301220DF1070166
:10102800204600F003FD0028F5D19DF8070002B026
:1010380010BD00BF580F002000B583B0844641F2B0
:10104800883301220DF1070103488DF807C000F02D
:101058009FFC03B05DF804FB580F0020F0B4016852
:10106800CF0782B032D5944A936803F00C03042B5F
:1010780000F00881936803F00C03082B00F0FE8051
:101088004568B5F5803F00F03281B5F5A02F00F036
:101098008781894E336823F480333360336823F4BF
:1010A80080233360002D40F02781844B844F1A68D9
:1010B800174401321A6004E00132BA424FF00105C8
:1010C80055D03468A403F7D405B11A608A0733D51C
:1010D800794B9A6812F00C0F00F0E2809A6802F0DF
:1010E8000C02082A00F0D880C268002A00F040816B
:1010F800744A724B012111601A686F49541C1C60B4
:101108000C68A6070AD40D68AD0702F1020404D4DE
:1011180009688F0702F1030428D51C60664CF82281
:10112800216892FAA2F20369B2FA82F2934021F09E
:10113800F8021343236001680F0736D54269DAB90C
:1011480060495E4BC1F8802E1A685B49541C1C60CC
:101158004C6FA60740F12E814D6FAD0702F10204D6
:1011680021D5496F890702F103041CD504320320F5
:101178001A6002B0F0BC7047524A504B0121C2F8C5
:10118800801E1A684C49541C1C604C6FA60700F15D
:1011980011814D6FAD0702F1020404D4496F8F0726
:1011A80002F10304E2D501681C604F0741D5424BA8
:1011B800454C002201921A6C42F080521A641B6C52
:1011C80003F080530193019B22683C4B42F48072E8
:1011D800226019684A1C1A602568EE0500F1A38090
:1011E8002568ED0501F1020200F19C802468E40500
:1011F80001F1030200F1968004311960032002B066
:10120800F0BC70472C4C216F41F001012167511C43
:1012180002F59C52284D19600A32002604E001317B
:101228008A424FF00106A2D02C6FA707F7D506B166
:1012380019608369F3B1204DAA6802F00C02082AEC
:1012480035D0022B1F4A1D4B00F0B68000241466CF
:101258001868421C00F5F4101A6000F2824004E09D
:10126800013282424FF0010481D029688901F7D404
:1012780004B11A60002002B0F0BC704753685E02E7
:101288007FF5FEAE0C4B1B689D037FF51FAF4368CF
:10129800002B7FF41BAF0AE05B685B023FF524AFCD
:1012A800054B1B689F0711D5C368012B0ED0012081
:1012B80002B0F0BC704700BF00380240E80F0020C1
:1012C80002E1F50500004742007000406B4DF8232D
:1012D8002C6893FAA3F3B3FA83F2036924F0F804B1
:1012E800934023430F072B607FF55FAF26E7634AE0
:1012F800136843F480331360614B624D1C685F4F81
:10130800621C1A602544002605E00132AA424FF00B
:1013180001063FF42CAF3C68A403F6D5002E7FF4F9
:10132800D4AED3E61A608568012D3FF46BAF052D66
:1013380000F09780514E316F21F001013167316F14
:1013480021F004013167002D7FF461AF511C02F5D3
:101358009C5219600A3204E0013191424FF00105B4
:101368007CD0346FA407F7D4002D7FF461AF60E719
:101378004549434B0A601A684049541C1C600C6874
:10138800A60778D50D68AD0702F1020405D50968EE
:10139800890702F103043FF5E9AE01681C60CBE65A
:1013A800364B1A6842F480221A601A6842F4803276
:1013B8001A60A1E70168F8E6002616661C68621C38
:1013C80004F5F4141A6004F2824405E00132A242E2
:1013D8004FF001063FF4CBAE29688F01F6D406B171
:1013E8001A6047F6C07595FAA5F54FF44031B5FA7D
:1013F80085F591FAA1F14FF07064B1FA81F194FA90
:10140800A4F4826A5208013A02FA01F1D0E90726E7
:101418003243466AC06A06FA05F5B4FA84F42A43E8
:10142800A0400A43154C184902430120626008662F
:101438001868421C00F5F4101A6000F2824000257A
:1014480005E0013282424FF001053FF490AE216879
:101458008E01F6D5002D7FF40CAF0BE71960032041
:10146800CDE606490C6F44F004040C670C6F44F099
:1014780001040C67CBE601685EE600BF0038024055
:10148800E80F002002E1F50500004742634A1368AF
:1014980003F00F038B4208D2CBB21370136803F02A
:1014A8000F038B4201D0012070470368F0B59E07F7
:1014B80006D55B4C8568A26822F0F0022A43A26038
:1014C800DD0727D54468012C6DD0A21E012A49D911
:1014D800534D2A6896072AD5AA68524E22F003026D
:1014E8001443AC6037687A1C4FF0000C41F2883E18
:1014F8003260FF4306E00132BC1874454FF0010C1E
:1015080000F28880AC6814F00C0FF4D1BCF1000F25
:1015180000D03260414C226802F00F028A4209D999
:10152800CBB22370236803F00F038B4201D0012054
:10153800F0BD03685A0706D53949C4688A6822F499
:10154800E05222438A6013F0080309D0344A016943
:10155800936823F4604343EAC10300209360F0BD1D
:101568001846F0BD2E4F3A689201E0D5BA682D4E64
:1015780022F003022243BA603568022C05F1010209
:10158800326036D105F59C550A354FF0000C04E061
:10159800013295424FF0010C28D0BC6804F00C04CD
:1015A800082CF5D1B2E71E4F3A689403BFD5BA6844
:1015B8001C4E22F0030242F00102BA6035686C1C2E
:1015C80005F59C554FF0000C34600A3504E00134F1
:1015D800A5424FF0010C09D0BA6802F00C02042AA7
:1015E800F5D1BCF1000F95D0346093E73560032046
:1015F800F0BD05F59C550A354FF0000C04E00132AA
:1016080095424FF0010CF1D0BC6804F00C040C2C8E
:10161800F5D17BE732600320F0BD00BF003C0240FB
:1016280000380240E80F00202DE9F04F00230D6834
:10163800DFF834828D4F83B003E00133102B00F0C4
:10164800A58001229A4032EA050402EA050CF4D189
:101658004E6826F01009B9F1020F00F09A80D0F810
:1016680000B04FEA430E032404FA0EF406F0030A0E
:101678002BEA040B09F1FF390AFA0EFA4AEA0B0AB7
:10168800B9F1010F6FEA0404C0F800A040F2AA8083
:10169800C26814408A6802FA0EF22243C260F2005D
:1016A800CBD500220192D8F8442042F48042C8F8F1
:1016B8004420D8F8442002F480420192019A23F091
:1016C800030202F1804202F59C3203F00309D2F8CA
:1016D80008E04FEA89090F2404FA09F42EEA040401
:1016E800DFF88CE1704529D00EF5806E704500F06A
:1016F8009080DFF880E1704500F09280DFF878E1B3
:10170800704500F09480DFF874E1704500F0968031
:10171800DFF86CE1704500F09880DFF868E170450B
:1017280000F09A80DFF860E170450CBF4FF0070EBB
:101738004FF0080E0EFA09F944EA090494603A6871
:101748006FEA0C0EF40354BF0EEA02024CEA0202DE
:101758003A607C68B20354BF0EEA04044CEA0404FD
:101768007C60BC68F20254BF0EEA04044CEA04042C
:10177800BC60FA68B40203F1010354BF0EEA020226
:101788004CEA0202102BFA607FF45BAF03B0BDE8AD
:10179800F08F4FEAD30E00EB8E0E0C69DEF820A016
:1017A80003F007094FEA89094FF00F0B04FA09F40F
:1017B8000BFA09F92AEA090944EA0904CEF8204093
:1017C800D0F800A04FEA430E032404FA0EF406F002
:1017D80003092AEA040A09FA0EF949EA0A09E4435C
:1017E800C0F80090D0F808A0D1F80C9004EA0A0AD2
:1017F80009FA0EF949EA0A09C0F80890D0F80490E5
:1018080029EA0209C6F300129A4042EA0902426034
:101818003EE74FF0010E0EFA09F944EA09048DE794
:101828004FF0020E0EFA09F944EA090486E74FF070
:10183800030E0EFA09F944EA09047FE74FF0040E93
:101848000EFA09F944EA090478E74FF0050E0EFA92
:1018580009F944EA090471E74FF0060E0EFA09F98E
:1018680044EA09046AE700BF00380240003C01402E
:101878000000024000080240000C02400010024034
:101888000014024000180240001C024002B909047A
:1018980081617047002875D030B490F8392003462C
:1018A80002F0FF01002A50D01A68DC681D69242163
:1018B80083F83910D16821F40051D1601069996812
:1018C80020F4405020431061D068DC6929435D69E9
:1018D80020F41640294320F00C0021430143D16035
:1018E8005169986921F440710143B4F5004F516181
:1018F8002ED05868244C25498000B1FBF0F1A4FB98
:10190800015040094FF0640C0CFB101109013231F1
:10191800A4FB0141000100EB51119160116921F410
:1019280090411161516921F02A015161D168002467
:101938004FF0200C41F40051D160DC6383F839C0CA
:1019480083F83AC0204630BC704780F83810ABE7BF
:101958005C680D4D0D486400B0FBF4F0A5FB001465
:101968006409642101FB1401C9003231A5FB01019E
:10197800C1F34210090900EB041001F4F8710144A5
:101988009160CBE7012070471F85EB51906EFB0AF1
:1019980090F83930202B42D100293ED0002A3CD083
:1019A80090F83830012B3AD010B421230024C463B6
:1019B80080F83930C284C38C828401249BB280F8B9
:1019C8003840002B2FD084680268C38C013B9BB23F
:1019D800B4F5805FC38415D013681B06FCD511F8D5
:1019E800013B5360C38C9BB2002BEED113685B069E
:1019F800FCD50023202280F8392080F8383010BC2C
:101A08001846704713681B06FCD50B88C3F30803F8
:101A1800536003692BB90231E4E7012070470220C3
:101A280070470131DEE70268E0E700BF90F83A301E
:101A3800202B5CD1002952D0002A50D090F83830A1
:101A4800012B54D010B422230024C46380F83A3008
:101A5800C285C38D828501249BB280F83840ABB122
:101A6800C38D8268013B9BB2B2F5805FC385026873
:101A780015D013689C06FCD50369002B31D1536837
:101A880001F8013BC38D9BB2002BE9D10023202232
:101A980080F83A2080F8383010BC18467047136830
:101AA8009B06FCD5046953681CBBC3F3080321F8E3
:101AB800023BC38D9BB2002BE8D0C38D013B9BB288
:101AC800C38513689B06FCD5536894B9C3F3080310
:101AD80021F8023BC38D9BB2002BEED1D6E7012043
:101AE8007047536803F07F0301F8013BCAE70220FF
:101AF8007047DBB221F8013BDBE700BF704700BF4E
:101B0800C0B110B50379012B044615D0437903F011
:101B1800FF025BB12268022363711368002043F05F
:101B28000403012113606171207110BD0271FFF778
:101B3800E5FFEFE701207047022010BD002103E018
:101B48000B4B5B58435004310A480B4B42189A42DE
:101B5800F6D30A4A02E0002313600432084B9A4283
:101B6800F9D3AFF30080FEF76BFBFEF7C1FDFEE78C
:101B7800AC280008000000203004002030040020B9
:101B8800EC0F0020FEE70000024B13B10248FEF7FD
:101B98003BBB7047000000001D020008F8B500BFFD
:101BA800F8BC08BC9E467047F8B500BFF8BC08BC36
:041BB8009E4670478E
:101BBC005900450099007400B00075006F004B008F
:101BCC004900E900F200E9004100D20015008B0049
:101BDC006700AD00430076006900D200AE006E00D5
:101BEC004A004500E4005200FF00B500010000006F
:101BFC0002000400080010002000400080001D00BE
:101C0C003A007400E800CD008700130026004C0059
:101C1C0098002D005A00B4007500EA00C9008F002E
:101C2C00030006000C00180030006000C0009D008E
:101C3C0027004E009C0025004A00940035006A00E5
:101C4C00D400B5007700EE00C10004001000400085
:101C5C001D007400CD0013004C002D00B400EA00F0
:101C6C008F000600180060009D004E0025009400B7
:101C7C006A00B500EE009F004600050014005000FD
:101C8C005D006900B900DE005F00610099005E0034
:101C9C00650089001E007800FD00D3006B00B100C8
:101CAC00FE00DF00080040003A00CD0026002D00A9
:101CBC0075008F000C006000270025003500B50072
:101CCC00C10046000A005000BA00B900A100610032
:101CDC002F0065000F007800E7006B007F00DF002D
:101CEC00B600D900860044001A00D000CE003E0099
:101CFC00ED003B00C50066001700B800A9001000FD
:101D0C001D00CD004C00B4008F0018009D00250074
:101D1C006A00EE00460014005D00B9005F009900F7
:101D2C0065001E00FD006B00FE005B00D900110079
:101D3C000D00D0008100F8003B0097008500B80032
:101D4C004F008400A80052004900E400E600C600E1
:101D5C00FC007B00E3009600200074002600B40019
:101D6C00030060009C006A00C1000500A000B900DF
:101D7C00BE005E000F00FD00D600DF00E200110087
:101D8C001A0067007C003B0033002E00A900840081
:101D9C004D0055007200E6009100D700FF00960040
:101DAC003700AE0064001C00A7005900EF00AC0027
:101DBC0024004000CD002D008F0060002500B500F0
:101DCC0046005000B9006100650078006B00DF0030
:101DDC00D9004400D0003E003B006600B800210052
:101DEC00A8005500E400BF00FC00F10096006E0056
:101DFC0082000700DD005900C3008A003D00FB0093
:101E0C002C00CF00AD0008003A0026008000130023
:101E1C00750018009C00B5008C005D00A1005E00F0
:101E2C003C006B00A30043001A0081009300660085
:101E3C006D00840029003900D100FC00FF00620015
:101E4C005700C800E00059009B001200F5000B0081
:101E5C00E900AD001000E8002D0003009D003500E6
:101E6C009F002800B9001D004C008F009D006A00E7
:101E7C0046005D005F006500FD00FE00D9000D000E
:101E8C0081003B0085004F00A8004900E600FC00E3
:101E9C00E300950082001C005100C3001200F70003
:101EAC002C001B0002003A00980003002700D4000D
:101EBC008C00BA00BE00CA00E700E100AF001A00B7
:101ECC003A002D000C002500C1005000A100650057
:101EDC00E700DF008600D000ED006600A900A80036
:101EEC009200BF00B300960057000700A600C30085
:101EFC002400FB007D00AD00400026008F00270071
:101F0C00B5000A00B9002F0078007F00D9001A0034
:101F1C003E00C500B800150055007400B400600008
:101F2C006A000500B9005E00FD00DF0011006700CB
:101F3C003B002E0084005500E600D7009600AE0052
:101F4C001C005900AC00F4002C006C002000260092
:101F5C0003009C00C100A000BE000F00D600E200F0
:101F6C001A007C003300A9004D0072009100FF00A4
:101F7C0037006400E800EA002700EE00A0006100D2
:101F8C003C00FE00860067007600B8005400390063
:101F9C009100E300DC000700A200AC00F500B000EB
:101FAC0047003A00B400C000B50028005F000F00E5
:101FBC00B100AF00D00093002E0015004900630063
:101FCC00F1003700C800A6002B007A002C00CD00D1
:101FDC008F0025004600B90065006B00D900D000C9
:101FEC003B00B800A800E400FC0096008200DD0075
:101FFC00C3003D002C00AD003A0075002700C10065
:10200C00BA002F00E700B6001A00ED00170015000B
:10201C0092009100DB0057003800F20024008B0086
:10202C00360040002D0060008700060035001400CB
:10203C00BE007800A3000D00ED002E005400E4005B
:10204C00E5006200640051004500FB0083002000A5
:10205C002D00C000EE00BA005E00BB00D900BD0030
:10206C00EC00A9005200D100F100DC001C00F200D1
:10207C0048001600AD007400C90025008C00DE007D
:10208C000F0013001800B5005D005E006B004300EC
:10209C008100660084003900FC006200C800590011
:1020AC0012000B00AD00E800030035002800C20050
:1020BC00E700E200BD00C5009E00AA0091004B00A5
:1020CC001900A6004500EB0036001D00EA002500B3
:1020DC0005005F0078005B0034003B0026006000C8
:1020EC00C100B9000F00DF001A003B00A900550029
:1020FC00910096006400590024002C000100260079
:10210C006000C100B9000F00DF001A003B00A900FD
:10211C005500910096006400590024002C00010029
:10212C0026006000C100B9000F00DF001A003B0060
:10213C00A900550091004C009D0046005F00FD0079
:10214C00D90081008500A800E600E3008200510060
:10215C0012002C000200980027008C00BE00E70043
:10216C00AF001F0017004D00D100DB001900A200CA
:10217C002400580004002D004E0005006100D3001F
:10218C0043003E002E009A00BF00AB003200590005
:10219C0098004E000A009900D600440093004F00AE
:1021AC009200D700DC00DD0045000B000100980018
:1021BC004E000A009900D600440093004F00920094
:1021CC00D700DC00DD0045000B00010098004E003C
:1021DC000A009900D600440093004F009200D700EB
:1021EC00DC00DD0045000B0001002D002500500037
:1021FC006500DF00D0006600A800BF009600070055
:10220C00C300FB00AD00260027000A002F007F0052
:10221C001A00C50015007300DB006400F200F50025
:10222C003600CD006000460061006B0044003B00AE
:10223C002100E400F100820059003D00CF003A007B
:10224C000C00C1005A009400BA001E00E2003E00CF
:10225C006D004900B300AE00A2003D008300E80011
:10226C0060008C0099007F0034003300A8006300EC
:10227C0062003800AC0016000800EA00D400B90077
:10228C00F0004300ED004F007200F10019007900DE
:10229C00F5006C00130027001400BC00DF00B40034
:1022AC006A00B900FD0011003B008400E6009600B6
:1022BC001C00AC002C0020000300C100BE00D600A6
:1022CC001A0033004D0091003700A7002400E900EC
:1022DC007400600005005E00DF0067002E005500F2
:1022EC00D700AE005900F4006C0026009C00A00042
:1022FC000F00E2007C00A9007500B500A1006B0086
:10230C001A0066002900FC0057005900F500AD00CA
:10231C002D003500B900E7004400C500A80091006D
:10232C006E00A6003D00360026002500BA0078009D
:10233C0086003B001500BF00C400DD002400CF0068
:10234C00CD00270050000F00D900ED0021007300D4
:10235C009600EA00EE006100FE006700B80039004C
:10236C00E3000700AC00B0003A00C00028000F00EA
:10237C00AF009300150063003700A6007A00D80068
:10238C002D006A00DE006B003400850055007B00D8
:10239C003200C3000B0020000C008C00BC00B60007
:1023AC007C009E0073003100E0002400C9009F00F7
:1023BC002F005B007C002100D1009500A600F400EA
:1023CC0047007500EE00C200DF001F004F007300D5
:1023DC006200A7003D00D8005A00B500BE00FE0008
:1023EC00CE00DA00D5009600E000480036009800D8
:1023FC006A00A100B100BD00B8007200AB0038004B
:10240C001200830026008F0046006500D9003B00B7
:10241C00A800FC008200C3002C003A002700BA0080
:10242C00E7001A0017009200DB0038002400360089
:10243C002D00B5006100DF003E002100BF006E00E2
:10244C005900FB0008000C000A000F008600C500B4
:10245C002900B300640056007D00CD002500B900B2
:10246C00030005000F00110033005500FF001C0095
:10247C0024006C00B400C1005E00E2003B004D0083
:10248C00D7006400AC00E90026006A00BE00DF0043
:10249C007C0084009100AE00EF002C0074009C00C6
:1024AC00B900D6006700A900E60037005900EB0020
:1024BC0020006000A000FD001A0006001400780047
:1024CC000D002E00E40062005100FB002000C00053
:1024DC00BA00BB00BD00A900D100DC00F200160060
:1024EC0074002500DE00FE003E0084003F008200E8
:1024FC002B00FA002600D400C200B60093004D0059
:10250C00B3008D0009003600B4009F006500430045
:10251C00970055000C005000E700D000A900BF0048
:10252C005700C3007D002600B5002F00D900C50060
:10253C005500DB00DD00F50008006000BA006B0000
:10254C00CE002100910082005600CF002D00C1006A
:10255C0065008600660092009600A600FB00400015
:10256C002700B9007F003E001500FC006400180035
:10257C005D006B0081008400FC00C8001200AD00FF
:10258C0003002800E700BD009E00910019004500E3
:10259C003600EA00050078003400DA00BF00AE0017
:1025AC002B00CF005A0023000F0088005C00730042
:1025BC00DC00EF007D004C00EE0065001100850092
:1025CC00E400950079002C00300069007F00F800D1
:1025DC004D00F100E000F70040009C005F00B600E9
:1025EC00EC00AA009600A2000B00CD00D4005E0007
:1025FC0086008500D5006E00EF00FA002D00230048
:10260C001E001A00DA006300820045006C008F0087
:10261C002800D300CE008400E500070090000200E3
:10262C0060006000B900DF003B00550096005900C7
:10263C002C002600C1000F001A00A90091006400B4
:10264C00240001006000B900DF003B00550096003B
:10265C0059002C002600C1000F001A00A90091009F
:10266C006400240001006000B900DF003B0055004D
:10267C00960059002C002600C1000F00010002003A
:10268C000400080010002000400080001D003A00EB
:10269C007400E800CD008700130026004C00980061
:1026AC002D005A00B4007500EA00C9008F00030029
:1026BC0006000C00180030006000C0009D002700D0
:1026CC004E009C0025004A00940035006A00D4009E
:1026DC00B5007700EE00C1009F00230046008C007F
:1026EC0005000A00140028005000A0005D00BA008C
:1026FC006900D200B9006F00DE00A1005F00BE00CF
:10270C006100C20099002F005E00BC006500CA0089
:10271C0089000F001E003C007800F000FD00E7006F
:10272C00D300BB006B00D600B1007F00FE00E100BF
:10273C00DF00A3005B00B6007100E200D900AF001F
:10274C004300860011002200440088000D001A008E
:10275C0034006800D000BD006700CE0081001F006F
:10276C003E007C00F800ED00C70093003B007600B3
:10277C00EC00C500970033006600CC008500170004
:10278C002E005C00B8006D00DA00A9004F009E001E
:10279C0021004200840015002A005400A8004D00BE
:1027AC009A0029005200A4005500AA00490092008A
:1027BC0039007200E400D500B7007300E600D100C8
:1027CC00BF006300C60091003F007E00FC00E500E6
:1027DC00D700B3007B00F600F100FF00E300DB0044
:1027EC00AB004B00960031006200C400950037002E
:1027FC006E00DC00A5005700AE00410082001900FD
:10280C0032006400C8008D0007000E001C00380068
:10281C007000E000DD00A7005300A6005100A200EC
:10282C005900B2007900F200F900EF00C3009B00E0
:10283C002B005600AC0045008A0009001200240051
:10284C00480090003D007A00F400F500F700F3001A
:10285C00FB00EB00CB008B000B0016002C0058008B
:10286C00B0007D00FA00E900CF0083001B003600A9
:10287C006C00D800AD0047008E000100020004007F
:10288C00303132333435363738394142434445469A
:04289C000800002010
:0828A000911B0008F101000882
:0428A800C90100085A
:1028AC00080000200000000000000000F4020020DE
:1028BC005C030020C40300200000000000000000A6
:1028CC0000000000000000000000000000000000FC
:1028DC0000000000000000000000000000000000EC
:1028EC0000000000000000000000000000000000DC
:1028FC0000000000000000000000000000000000CC
:10290C0000000000000000000000000000000000BB
:10291C0000000000000000000000000000000000AB
:10292C00000000000000000000000000000000009B
:10293C00000000000000000000000000000000008B
:10294C00000000000000000000000000000000007B
:10295C0001000000000000000E33CDAB34126DE618
:10296C00ECDE05000B000000000000000000000081
:10297C00000000000000000000000000000000004B
:10298C00000000000000000000000000000000003B
:10299C00000000000000000000000000000000002B
:1029AC00000000000000000000000000000000001B
:0400000508001B458F
:00000001FF
