:020000040800F2
:1000000000000220FD1B0008451C0008451C0008DC
:10001000451C0008451C0008451C000800000000A5
:10002000000000000000000000000000451C000867
:10003000451C000800000000451C0008451C000885
:1000400000000000000000000000000000000000B0
:1000500000000000000000000000000000000000A0
:100060000000000000000000000000000000000090
:100070000000000000000000000000000000000080
:100080000000000000000000000000000000000070
:100090000000000000000000000000000000000060
:1000A0000000000000000000000000000000000050
:1000B0000000000000000000000000000000000040
:1000C0000000000000000000000000000000000030
:1000D0000000000000000000000000000000000020
:1000E0000000000000000000000000000000000010
:1000F0000000000000000000000000000000000000
:1001000000000000000000000000000000000000EF
:1001100000000000000000000000000000000000DF
:1001200000000000000000000000000000000000CF
:1001300000000000000000000000000000000000BF
:1001400000000000000000000000000000000000AF
:10015000000000000000000000000000000000009F
:10016000000000000000000000000000000000008F
:10017000000000000000000000000000000000007F
:08018000000000000000000077
:100188000348044B834202D0034B03B1184770471E
:100198000000002000000020000000000548064B79
:1001A8001B1AD90F01EBA301491002D0034B03B16D
:1001B80018477047000000200000002000000000E1
:1001C80010B5064C237843B9FFF7DAFF044B13B197
:1001D8000448AFF300800123237010BD0000002005
:1001E800000000005C1C000808B5044B1BB1044962
:1001F8000448AFF30080BDE80840CFE700000000E6
:10020800040000205C1C0008830730B547D0541E4A
:10021800002A3ED0CAB2034601E0013C39D303F8B4
:10022800012B9D07F9D1032C2CD9CDB205EB05255F
:100238000F2C05EB054535D9A4F1100222F00F0C5F
:1002480003F1100EE6444FEA121C1A46C2E90055A3
:10025800C2E9025510327245F8D10CF1010214F0CE
:100268000C0F03EB021204F00F0C13D0ACF10403D3
:1002780023F003030433134442F8045B9342FBD195
:100288000CF003042CB1C9B21C4403F8011BA342AF
:10029800FBD130BD64461346002CF4D1F9E7034680
:1002A8001446C0E71A46A446E0E700BF844641EA80
:1002B800000313F003036DD1403A41D351F8043BD6
:1002C80040F8043B51F8043B40F8043B51F8043B28
:1002D80040F8043B51F8043B40F8043B51F8043B18
:1002E80040F8043B51F8043B40F8043B51F8043B08
:1002F80040F8043B51F8043B40F8043B51F8043BF8
:1003080040F8043B51F8043B40F8043B51F8043BE7
:1003180040F8043B51F8043B40F8043B51F8043BD7
:1003280040F8043B51F8043B40F8043B51F8043BC7
:1003380040F8043B51F8043B40F8043B403ABDD236
:10034800303211D351F8043B40F8043B51F8043BD8
:1003580040F8043B51F8043B40F8043B51F8043B97
:1003680040F8043B103AEDD20C3205D351F8043B67
:1003780040F8043B043AF9D2043208D0D2071CBF33
:1003880011F8013B00F8013B01D30B88038060465C
:10039800704700BF082A13D38B078DD010F00303D2
:1003A8008AD0C3F10403D21ADB071CBF11F8013B42
:1003B80000F8013B80D331F8023B20F8023B7BE791
:1003C800043AD9D3013A11F8013B00F8013BF9D2BC
:1003D8000B7803704B7843708B7883706046704756
:1003E80070B50F4B0F4DAB42A3EB050607D0B61007
:1003F800002455F8043B01349847A642F9D801F087
:1004080029FC094D094B5E1BAB424FEAA60606D0F4
:10041800002455F8043B01349847A642F9D870BD2A
:100428005C2900085C2900085C2900086429000888
:10043800002301461A46184600F014B838B5074D8F
:10044800074C2C1BA41005D0013C55F8043D9847D7
:10045800002CF9D1BDE8384001F002BC6829000839
:100468006429000870B4164D2C681CB365681F2DEC
:1004780023DC38B9AB1C0135656044F82310002033
:1004880070BC704704EB850C0228CCF88820D4F89F
:1004980088614FF0010202FA05F246EA0206C4F842
:1004A8008861CCF80831E5D1D4F88C311343C4F80D
:1004B8008C31DFE7034C2C60D8E74FF0FF30DFE7E3
:1004C800C40B0020C80B0020024B02781A700020D1
:1004D800704700BF2000002010B40346044C006899
:1004E80059689A68DB680FC4002010BC704700BFC9
:1004F80024000020012912D910B54A1E0378094C9E
:10050800D2B299182E29C8BFC3F12E0200F10101F9
:10051800C8BFD2B2E018FFF7C9FE002010BD012005
:10052800704700BF3400002010B5084C00F048FDAB
:1005380014F8481B204600F047F900F049FD224610
:100548001021722000F07AFC002010BD200000204D
:1005580070B5124D05F1450405F6E50600F030FDCD
:10056800204615F8011F00F02FF900F031FD94E83E
:100578000F0004F1100E8EE80F0094E80F0004F14C
:10058800200C3034A6428CE80F00E7D1044A102131
:10059800722000F053FC002070BD00BF3300002023
:1005A8007800002008B503781B0103F11002B2F5AA
:1005B8000A6F01D9012008BD034A10211A4472208C
:1005C80000F03CFC002008BD7800002008B511B1FF
:1005D800094B02781A7500F0F3FC084901F1440050
:1005E80000F01EF900F0F4FC054A1021722000F01A
:1005F80025FC002008BD00BF20000020340000209A
:100608007800002010B500F0DBFC084901F158041F
:100618002046043100F0C4F800F0DAFC224610212C
:10062800722000F00BFC002010BD00BF200000204D
:1006380010B50D4C2E22002104F11400FFF7E4FD43
:100648004FF40A62002104F15800FFF7DDFD23464C
:10065800002003F8480BA064C4E90100C3E90100C5
:10066800C4E90300D86010BD2000002070B52E2218
:1006780000211648164DFFF7C7FD164901F1100075
:1006880000F020F905F1450405F6E50600F098FCB0
:10069800204615F8011F00F097F800F099FC94E83F
:1006A8000F0004F1100E8EE80F0094E80F0004F11B
:1006B800200C3034A6428CE80F00E7D1064A1021FE
:1006C800722000F0BBFB002070BD00BF340000208A
:1006D80033000020240000207800002008B500F036
:1006E800CDFB00F00BFC00F049FC2E220021204835
:1006F800FFF78AFD4FF40A6200211E48FFF784FDC8
:1007080000F0AAFA1C4A10216D2000F0DBFA1B4AFF
:100718000121622000F0D6FA194A0121652000F073
:10072800D1FA184A1021702000F0CCFA164A01219B
:10073800742000F0C7FA154A0121672000F0C2FAB8
:10074800134A0121782000F0BDFA124A10216920CD
:1007580000F0B8FA104A0121632000F0B3FA0F4AFA
:100768000121642000F0AEFA00F0C8FAFCE700BFEF
:100778003400002078000020FD040008D10400089F
:1007880031050008D505000859050008AD05000821
:1007980039060008E10400080D060008750600087F
:1007A80030B58DB02E220D46044600216846FFF76D
:1007B8002BFD2946684600F085F86946204600F07A
:1007C8002FF80DB030BD00BF41F3400341F3C01214
:1007D80041F3000C03F0CC3353400CF0AA3C8CEAF4
:1007E800030C41F3800341F3C00203F0F03383EAC2
:1007F8000C0302F0FF225A4041F300136FF30F037A
:10080800534041F3401210B441F3801182EA0304CB
:1008180061404A40C0E90034826010BCC160704742
:100828002DE9F043264D01F1FF3E00F1100301F1DF
:100838002D041EF8012F42F3400042F3C01642F384
:10084800000100F0CC30704042F3800C01F0AA3176
:1008580041400CF0F03C42F3C0008CEA010C00F07F
:10086800FF2042F3001180EA0C002940414042F386
:10087800401081EA000642F380127240504043E97A
:10088800020243E9041653F804CC53F8109C53F8B9
:100898000C8C53F8087CC3F800904E4640466246DC
:1008A800A645C3F804809F60C3F80CC01E61586158
:1008B8009F61DA6103F13003BBD1BDE8F08300BF6B
:1008C8000000FFFF2DE9F04FA3B0294E02AD074607
:1008D80088463E2200212846FFF796FC0FCE12AC30
:1008E8000FC40FCE0FC40FCE0FC496E80F0007C475
:1008F8002E22002138462380FFF786FC07F11D03CE
:100908004FF0000B08F11006019316F8013D0DF1A8
:10091800460A8BEA030B0DF106093AF8021F5846FE
:1009280000F028F8A24529F8020FF6D101990DF137
:10093800420211F8013D32F80209434095424B70DA
:10094800F7D1BDF808303B70464502D097F81DB086
:10095800DBE731687268B368F068C7F82A00C7F83F
:100968001E10C7F82220C7F8263023B0BDE8F08F44
:10097800741C000801F07F0C2DE9F04741F3C01109
:10098800C0F3810EC0F301198CB2CEF10203AEF1AF
:10099800020100F003071943A9F10202C9F1020399
:1009A800C7F102051A43BB1E0EF1FF362B43CEF1E9
:1009B80001052E43C917C943F61701EA4C012CEA71
:1009C80006064E4009F1FF35C9F101010D43D21762
:1009D800D243ED1702EA4C022CEA05055540C7F14F
:1009E80001017A1E0A43DB17DB43D21703EA4C03E3
:1009F8002CEA02025A40AEF10303CEF1030EC0F313
:100A0800811843EA0E0EA9F10303C9F1030943EA69
:100A18000903A8F10201C8F10209C8F1010A41EA73
:100A2800090108F1FF3949EA0A09C917C9434FEA18
:100A3800E9792CEA090901EA4C014FEAEE7E8CEAD1
:100A48004C0CDB172CEA0E0E2CEA03038EEA060E7A
:100A58006B40A8F10306FD1EC8F10308C7F10307A0
:100A68003D4346EA0806F617ED172CEA05052CEA79
:100A7800060C04EAC01606F4FF4672401FFA8EFE02
:100A88006A4089EA01019BB282EA8E028CEA01017E
:100A9800C0F3460082EA03121B1189B2044083EABC
:100AA8009E1382EA8112634083EA9103D2B242EA3A
:100AB800032213B242F3C032110A180A40EA026054
:100AC8008C0044EA9074DBB2434084EA1224CA00E2
:100AD80042EA507283EA8003544083EAC0030A0161
:100AE80083EA001342EA10726240190A41EA02617D
:100AF80003F0FF00484080EA810080EAC10080EAF4
:100B0800011080B2BDE8F0870120704738B50A4B64
:100B18000A4D1C78722000F077FA230904F00F04BC
:100B2800E85C00F071FA285D00F06EFA0A2000F027
:100B38006BFA002038BD00BF1809002044290008BE
:100B4800F0B51B4E357899B0ADB10022134606EBCF
:100B5800031103EB4303603301326B44D2B20C79C7
:100B68008868097C03F8604CAA4203F85F0C03F814
:100B78005E1C1346EBDB05EB45077220FFB200F065
:100B880043FA7DB16D460B4E2F4415F8014B2309EE
:100B980004F00F04F05C00F037FA305D00F034FA2E
:100BA800AF42F2D10A2000F02FFA002019B0F0BDB0
:100BB800180900204429000800284BDD00B501EB86
:100BC800400C13E0A0F14103052B2ED83738C3B2EF
:100BD800AEF13000C0B20928137015D843EA0013EB
:100BE800DBB20231614502F8013B1BD0487891F82D
:100BF80000E0A0F13003DBB2092BE3D81370AEF1AB
:100C08003000C0B20928E9D9AEF14100052814D84E
:100C1800AEF1370E43EA0E130231DBB2614502F83A
:100C2800013BE3D100205DF804FBA0F16103052B33
:100C38000DD85738C3B21370E1E7AEF1610005284B
:100C480005D8AEF1570E43EA0E13DBB2C9E701200F
:100C58005DF804FB00207047164B1A681F2A27DC32
:100C6800154810B403EB02110024C1E90240501CDE
:100C78004FF0760C202881F804C00C74186015D049
:100C880003EB0010772101710C490474C0E902419B
:100C9800911C2029196009D003EB011179200871F2
:100CA80007480C74C1E9024003321A6010BC70474F
:100CB800704700BF18090020110B0008490B0008F5
:100CC800150B000810B40C4C23681F2B10DC3F29AF
:100CD8000ED804EB031C01338CF8040000208CF8B8
:100CE80010002360CCF8081010BCCCF80C2070471A
:100CF800012010BC704700BF180900202DE9F04101
:100D08004C4EB0B000F06CF9316800294FF0000388
:100D180008DD341D02E001338B4222D01A01A25CA7
:100D28008242F8D199421CD006EB03121C01137CB5
:100D3800DB0719D493685B0044D010AF002506EB9D
:100D4800040808E00D280CD0D8F8083007F8010B83
:100D5800B5EB430F36D200F043F90A2805F1010537
:100D6800F0D130B0BDE8F08100F03AF9054600F066
:100D780037F9A0F13003DBB2092B0CD9A0F14103FC
:100D8800DBB2052B4AD9A0F16103DBB2052BE8D809
:100D9800A0F15703DBB2A5F13002D2B2092A37D944
:100DA800A5F14102D2B2052A3CD9A5F16102D2B21D
:100DB800052AD6D8A5F15700321943EA0013DBB249
:100DC8009360BAE700F00CF90A2801D00D28C8D1C1
:100DD80026446A46B46810A92046FFF7EDFE0028AD
:100DE800BFD1E1B2F368144D6846984704467A20AB
:100DF80000F00AF9C4F3071304F00F04E85C00F0EC
:100E080003F9285D00F000F90A2000F0FDF8A8E7D2
:100E180043EA02133219DBB293608CE7A0F137037F
:100E2800DBB2B8E7A5F13700321943EA0013DBB2A9
:100E3800936082E71809002044290008D2B170B5F0
:100E48000E46144600F0E0F87EB10B4D2644237898
:100E58001B09E85C00F0D8F814F8013B03F00F0315
:100E6800E85C00F0D1F8A642F1D1BDE870400A2054
:100E780000F0CAB8704700BF44290008F0B593B025
:100E880003264FF4A0270223CDE9066701254FF476
:100E980080010C930C22C4230426072706A8CDE959
:100EA8000D12CDE9106709950F9300F0BFF800B156
:100EB800FEE704460F23014601A8CDE90135CDE937
:100EC8000344059400F0A8FA094B00945A6B0948AA
:100ED800094942F040025A635B6B016003F040032A
:100EE8000093009B447100F067FE13B0F0BD00BF93
:100EF80000380240200B00200008065030B50223BD
:100F080089B007224FF4C060CDE90303CDE906326A
:100F1800164D174800240121019405912B6B0B43B2
:100F28002B632B6B03F0010303A90193019B00F0D2
:100F380031FB02946A6C0F4B0F494FF4164042F094
:100F4800100258616A646A6C196102F010020C217F
:100F5800029203F11000C3E90644C3E90841029A6A
:100F68009C6200F0EFFC09B030BD00BF00380240C1
:100F780000000240200B00200010014030B589B06D
:100F88000D4B0E48002201921A6B42F001021A63BF
:100F98001B6B03F00103019300224FF480540125D9
:100FA800022302A9CDE90423CDE90245019B00F003
:100FB800F1FA09B030BD00BF00380240000002401D
:100FC800024801224FF4805100F0B8BC00000240F2
:100FD800024800224FF4805100F0B0BC00000240EB
:100FE80010B5084C82B041F2883301220DF1070197
:100FF800204600F06FFD0028F5D19DF8070002B0EB
:1010080010BD00BF300B002000B583B0844641F20C
:10101800883301220DF1070103488DF807C000F05D
:101028000DFD03B05DF804FB300B0020F0B404683C
:10103800E50782B032D5984A936803F00C03042B75
:1010480000F0F180936803F00C03082B00F0E780B0
:10105800924B41681A68B1F5803F02F1010600F031
:101068000781B1F5A02F00F062818B4D2F6827F41E
:1010780080372F602F6827F480272F60002940F0E1
:10108800FC801E60864E1644023204E01A6001326B
:10109800964200F0878029688903F7D4A1073DD5D7
:1010A8007D4B9A6812F00C0F26D09A6802F00C0259
:1010B800082A1ED0C368002B00F02081794B774A9C
:1010C80001211960136874495C1C14600C68A70737
:1010D80000F139819C1C14600C68A60700F133816B
:1010E800DC1C146009688D0700F12D81043313603E
:1010F80058E05B685A02DDD4674B1B689B0700F118
:10110800AF80654DF822296892FAA2F20369B2FA13
:1011180082F221F0F80193400B432B6025071AD582
:101128004269002A00F089805E4A5C4B0121C2F8BE
:10113800801E1A685849541C1C604C6FA40700F1A3
:1011480000814C6FA70700F15F81496F8E0727D593
:10115800033204681A6063073DD54F4B524C002296
:1011680001921A6C42F080521A641B6C03F080538F
:101178000193019B2268494B42F4807222601A68ED
:10118800511C19602568EF0500F192802168CE0591
:1011980000F18C802168CD0548BFD11C00F1878003
:1011A80004321A60032037E03B4D2C6F44F00104F1
:1011B8002C6701F59C51384D1A600A31002605E06C
:1011C80001328A424FF0010600F0AF802C6FA4076D
:1011D800F6D506B11A608369EBB12F4CA26802F00C
:1011E8000C02082A40D02F4A022B4FF000012B4B4B
:1011F800116600F0B7801A68511C02F5F4101960E6
:10120800023200F2834003E01A6001329042C9D0F2
:1012180021688901F8D4002002B0F0BC70475368F7
:101228005A027FF515AF1C4B1B689B037FF536AF41
:101238004368002B7FF432AF16E01A49174BC1F808
:10124800802E1A681449541C1C604C6FA50778D569
:101258004C6FA40740F1D880496F8907A0D477E77D
:10126800C368012B3FF44DAF012002B0F0BC7047BA
:10127800094D296841F480312960094D1E60911C8F
:10128800054E154403E0196001318D428AD0326859
:101298009703F8D502E700BF00380240C00B0020D2
:1012A80003E1F5050000474200700040911C1960F9
:1012B8008568012D01F101023FF476AF052D00F09C
:1012C8009980524E346F24F001043467346F24F04F
:1012D80004043467002D7FF46CAF01F59C511A604B
:1012E8000A3104E001328A424FF001051DD0346F03
:1012F800A707F7D4002D7FF46DAF6CE74449454A42
:101308000B60136841495C1C14600C68A4070AD57B
:101318009C1C14600C68A70705D5DC1C14600968C0
:101328008E073FF5E3AE0468F8E61A603AE73749F6
:101338000D6845F480250D600D6845F480350D6015
:101348009BE7046807E7314CF822216892FAA2F279
:101358000369B2FA82F2934021F0F8021343236042
:101368000468DBE61D686A1C1A60AA1C05F5F415FA
:1013780005F2834504E01A600132AA423FF412AF35
:1013880021688E01F7D447F6C07696FAA6F64FF490
:101398004037B6FA86F697FAA7F74FF07065B7FAAE
:1013A80087F795FAA5F5826A51080139B940D0E95D
:1013B80007273A43476AB7403A430A43C16A144881
:1013C800B5FA85F5A9400A436260012202661A68E7
:1013D8000E4C511C02F5F4101960023200F28340E1
:1013E80004E01A60013282423FF4DCAE21688D01CC
:1013F800F7D510E7054C256F45F004052567256FDF
:1014080045F001052567D4E60232A2E6003802401D
:1014180000004742C00B00205B4A136803F00F032B
:101428008B4208D2CBB21370136803F00F038B42C0
:1014380001D001207047F0B50468A50706D5534AC6
:101448008568936823F0F0032B439360E20726D561
:101458004268012A75D0931E4C4E012B336843D93C
:101468009D0729D5B3684A4D23F003031343B3609E
:101478002F687B1C4FF0000C41F2883E2B6006E081
:101488000133DA1B013A72454FF0010C78D8B26883
:1014980012F00C0FF4D1BCF1000F00D02B603A4AC7
:1014A800136803F00F038B4209D9CBB2137013688A
:1014B80003F00F038B4201D00120F0BD04686207DE
:1014C80006D5324AC168936823F4E0530B4393600E
:1014D800230707D52D4A0169936823F4604343EA3B
:1014E800C10393600020F0BD9F01E5D5B368284D86
:1014F80023F003031343B3602F68022A07F10103A3
:101508002B604FF0000C41F2883E07D013E0013306
:10151800DA1B013A72454FF0010C31D8B26802F07B
:101528000C02082AF3D1B6E70133DA1B013A7245F7
:101538004FF0010C24D8B26802F00C020C2AF3D147
:10154800A9E7124F3B689B03B6D5BB68104D23F043
:10155800030343F00103BB602E68731C06F59C5619
:101568004FF0000C2B600A3604E001339E424FF026
:10157800010C05D0BA6802F00C02042AF5D18AE7FA
:101588002B600320F0BD00BF003C02400038024041
:10159800C00B00202DE9F04FAF4A0B68904287B08E
:1015A8004FF0000200F0E180DFF8B0B28A4603E0B5
:1015B8000132102A00F0AE80012101FA02F434EA67
:1015C800030104EA0307F3D1DAF80410DAF8085043
:1015D800560005FA06FC21F010080325B54001F075
:1015E800030EB8F1020F6FEA05050EFA06FE58D091
:1015F800D0F8009008F1FF3809EA050949EA0E0E0B
:10160800B8F1010FC0F800E06BD9C4682C4044EA77
:101618000C04C460CC00CBD5914D002405946C6CAF
:1016280044F480446C646C6C04F480440594059C18
:1016380022F0030404F1804404F59C3402F003060C
:10164800A568B6004FF00F0C0CFA06FC25EA0C054D
:10165800DFF810C2604560D0DFF80CC2604500F0CA
:101668004E81DFF808C2604500F04F81DFF800C204
:10167800604500F05681DFF8FCC1604500F05781F5
:10168800DFF8F4C1604500F04681DFF8F0C160453D
:101698000CBF4FF0070C4FF0080C0CFA06F6354358
:1016A80040E04FEAD20900EB890902F00708D9F8AF
:1016B80020700197DAF810704FEA880807FA08F7DF
:1016C80002970F2707FA08F8019F27EA0808029FE0
:1016D80047EA0807C9F8207007682F4047EA0E074D
:1016E8000760876807EA050EDAF80C70B74047EA22
:1016F8000E07876046680909914026EA04042143D9
:101708004160C1680132294041EA0C01102AC160D8
:101718007FF452AF07B0BDE8F08F4FF0010C0CFA20
:1017280006F63543A560DBF80040FD43CE0354BF01
:101738002C403C43CBF80040DBF804408E0354BFF8
:101748002C403C43CBF80440DBF80840CE0254BFA1
:101758002C403C43CBF80840DBF80C40890254BFCE
:101768002C403C43CBF80C4022E7DFF8F0B0019165
:101778004FF0010802E00132102ACBD008FA02F536
:1017880035EA030403EA0507F5D101994C688E6828
:1017980003214FEA420C04EA010E06FA0CFA01FA98
:1017A8000CF60EFA0CF124F0100EBEF1020F6FEADF
:1017B8000606029164D0D0F800900EF1FF3E09EAC7
:1017C800060949EA0109BEF1010FC0F8009077D96E
:1017D800C568354045EA0A05C560E500CBD5002156
:1017E80005911F494D6C45F480454D644D6C05F4D9
:1017F80080450595059D22F0030505F1804505F511
:101808009C3502F00306D5F808C00F21B60001FA8E
:1018180006F62CEA0606AE60E103DBF800506FEA34
:1018280007066AD43540CBF80050A103DBF8045012
:1018380061D43540CBF80450E102DBF8085058D4A5
:101848003540CBF80850A102DBF80C504FD4354096
:10185800CBF80C508FE700BF00000240003C01406D
:10186800003802400004024000080240000C024018
:10187800001002400014024000180240001C024000
:101888000199D708BF00096907F1804702F0070EE0
:1018980007F500374FEA8E0E01FA0EF1D7F82090BF
:1018A80003910F2101FA0EFE039929EA0E0941EA74
:1018B800090EC7F820E007680299374039430160EC
:1018C8008768019907EA060ECF6807FA0CF747EA16
:1018D8000E07876047682409944027EA05052C43CA
:1018E8004460C468344044EA0A04C46043E73D43A2
:1018F800AEE73D43A5E73D439CE73D4393E74FF003
:10190800020C0CFA06F635430CE74FF0030C0CFA00
:1019180006F6354306E74FF0060C0CFA06F6354393
:1019280000E74FF0040C0CFA06F63543FAE64FF0E0
:10193800050C0CFA06F63543F4E600BF02B90904B3
:1019480081617047002873D030B490F8392003467D
:1019580002F0FF01002A4FD01A68DC681D692421B3
:1019680083F83910D16821F40051D1601069996861
:1019780020F4405020431061D068DC6929435D6938
:1019880020F41640294320F00C0021430143D16084
:101998005169986921F440710143B4F5004F5868C2
:1019A80051612CD0234C24498000B1FBF0F1A4FBF9
:1019B80001504009642505FB101109013231A4FBCF
:1019C8000141000100EB51109060116921F4904130
:1019D8001161516921F02A015161D16800244FF049
:1019E800200C41F40051D160DC6383F839C083F8DE
:1019F8003AC0204630BC704780F83810ACE70D4D2F
:101A08000D494000B1FBF0F1A5FB01046409642015
:101A180000FB1411C9003231A5FB0151C1F342107A
:101A2800090900EB041001F4F87101449160CCE756
:101A3800012070471F85EB51906EFB0A90F83930F2
:101A4800202B42D100293ED0002A3CD090F83830D3
:101A5800012B3AD010B421230024C46380F8393014
:101A6800C284C38C046882844FF0010C9BB280F856
:101A780038C08BB18268C38C013B9BB2B2F5805FE2
:101A8800C38415D023681B06FCD511F8013B63609D
:101A9800C38C9BB2002BEED123685B06FCD50023D8
:101AA800202280F8392080F8383010BC184670475A
:101AB80023681B06FCD50B88C3F30803636003691E
:101AC8002BB90231E4E70120704702207047013149
:101AD800DEE700BF90F83A30202B5DD1002956D0C0
:101AE800002A54D090F83830012B55D010B4222356
:101AF8000024C46380F83A30C285C38D82850124EE
:101B08009BB280F83840002B38D0C38D8268013BE7
:101B18009BB2B2F5805FC38503680FD01A6894063C
:101B2800FCD502695B6801F1010C002A31D1DBB2F6
:101B38000B70C38D9BB20BB36146E6E71A68920639
:101B4800FCD504695A68002C30D1C2F3080201F1AF
:101B5800020C0A80C28D92B282B1C28D013A92B251
:101B6800C2851A689206FCD55A68BCB9C2F3080245
:101B78002CF8022BC28D92B2002AEED1002320222B
:101B880080F83A2080F8383010BC18467047012099
:101B9800704703F07F03CBE702207047D2B22CF8DE
:101BA800012BC28D92B2002AD7D1E7E7D2B201F158
:101BB800010CCEE7704700BFC0B110B50379012B07
:101BC800044615D0437903F0FF025BB12268022373
:101BD80063711368002043F00403012113606171ED
:101BE800207110BD0271FFF7E5FFEFE70120704794
:101BF800022010BD002103E00B4B5B584350043119
:101C08000A480B4B42189A42F6D30A4A02E00023CC
:101C180013600432084B9A42F9D3AFF30080FEF701
:101C2800DFFBFEF75BFDFEE76829000800000020E7
:101C38000000002000000020580D0020FEE70000F2
:101C4800024B13B10248FEF7F3BB704700000000D7
:101C580045040008F8B500BFF8BC08BC9E467047AC
:0C1C6800F8B500BFF8BC08BC9E467047F1
:101C74005900450099007400B00075006F004B00D6
:101C84004900E900F200E9004100D20015008B0090
:101C94006700AD00430076006900D200AE006E001C
:101CA4004A004500E4005200FF00B50001000000B6
:101CB40002000400080010002000400080001D0005
:101CC4003A007400E800CD008700130026004C00A1
:101CD40098002D005A00B4007500EA00C9008F0076
:101CE400030006000C00180030006000C0009D00D6
:101CF40027004E009C0025004A00940035006A002D
:101D0400D400B5007700EE00C100040010004000CC
:101D14001D007400CD0013004C002D00B400EA0037
:101D24008F000600180060009D004E0025009400FE
:101D34006A00B500EE009F00460005001400500044
:101D44005D006900B900DE005F00610099005E007B
:101D5400650089001E007800FD00D3006B00B1000F
:101D6400FE00DF00080040003A00CD0026002D00F0
:101D740075008F000C006000270025003500B500B9
:101D8400C10046000A005000BA00B900A100610079
:101D94002F0065000F007800E7006B007F00DF0074
:101DA400B600D900860044001A00D000CE003E00E0
:101DB400ED003B00C50066001700B800A900100044
:101DC4001D00CD004C00B4008F0018009D002500BC
:101DD4006A00EE00460014005D00B9005F0099003F
:101DE40065001E00FD006B00FE005B00D9001100C1
:101DF4000D00D0008100F8003B0097008500B8007A
:101E04004F008400A80052004900E400E600C60028
:101E1400FC007B00E3009600200074002600B40060
:101E2400030060009C006A00C1000500A000B90026
:101E3400BE005E000F00FD00D600DF00E2001100CE
:101E44001A0067007C003B0033002E00A9008400C8
:101E54004D0055007200E6009100D700FF00960087
:101E64003700AE0064001C00A7005900EF00AC006E
:101E740024004000CD002D008F0060002500B50037
:101E840046005000B9006100650078006B00DF0077
:101E9400D9004400D0003E003B006600B800210099
:101EA400A8005500E400BF00FC00F10096006E009D
:101EB40082000700DD005900C3008A003D00FB00DA
:101EC4002C00CF00AD0008003A002600800013006B
:101ED400750018009C00B5008C005D00A1005E0038
:101EE4003C006B00A30043001A00810093006600CD
:101EF4006D00840029003900D100FC00FF0062005D
:101F04005700C800E00059009B001200F5000B00C8
:101F1400E900AD001000E8002D0003009D0035002D
:101F24009F002800B9001D004C008F009D006A002E
:101F340046005D005F006500FD00FE00D9000D0055
:101F440081003B0085004F00A8004900E600FC002A
:101F5400E300950082001C005100C3001200F7004A
:101F64002C001B0002003A00980003002700D40054
:101F74008C00BA00BE00CA00E700E100AF001A00FE
:101F84003A002D000C002500C1005000A10065009E
:101F9400E700DF008600D000ED006600A900A8007D
:101FA4009200BF00B300960057000700A600C300CC
:101FB4002400FB007D00AD00400026008F002700B8
:101FC400B5000A00B9002F0078007F00D9001A007C
:101FD4003E00C500B800150055007400B400600050
:101FE4006A000500B9005E00FD00DF001100670013
:101FF4003B002E0084005500E600D7009600AE009A
:102004001C005900AC00F4002C006C0020002600D9
:1020140003009C00C100A000BE000F00D600E20037
:102024001A007C003300A9004D0072009100FF00EB
:1020340037006400E800EA002700EE00A000610019
:102044003C00FE00860067007600B80054003900AA
:102054009100E300DC000700A200AC00F500B00032
:1020640047003A00B400C000B50028005F000F002C
:10207400B100AF00D00093002E00150049006300AA
:10208400F1003700C800A6002B007A002C00CD0018
:102094008F0025004600B90065006B00D900D00010
:1020A4003B00B800A800E400FC0096008200DD00BC
:1020B400C3003D002C00AD003A0075002700C100AC
:1020C400BA002F00E700B6001A00ED001700150053
:1020D40092009100DB0057003800F20024008B00CE
:1020E400360040002D006000870006003500140013
:1020F400BE007800A3000D00ED002E005400E400A3
:10210400E5006200640051004500FB0083002000EC
:102114002D00C000EE00BA005E00BB00D900BD0077
:10212400EC00A9005200D100F100DC001C00F20018
:1021340048001600AD007400C90025008C00DE00C4
:102144000F0013001800B5005D005E006B00430033
:102154008100660084003900FC006200C800590058
:1021640012000B00AD00E800030035002800C20097
:10217400E700E200BD00C5009E00AA0091004B00EC
:102184001900A6004500EB0036001D00EA002500FA
:1021940005005F0078005B0034003B00260060000F
:1021A400C100B9000F00DF001A003B00A900550070
:1021B400910096006400590024002C0001002600C0
:1021C4006000C100B9000F00DF001A003B00A90045
:1021D4005500910096006400590024002C00010071
:1021E40026006000C100B9000F00DF001A003B00A8
:1021F400A900550091004C009D0046005F00FD00C1
:10220400D90081008500A800E600E30082005100A7
:1022140012002C000200980027008C00BE00E7008A
:10222400AF001F0017004D00D100DB001900A20011
:102234002400580004002D004E0005006100D30066
:1022440043003E002E009A00BF00AB00320059004C
:1022540098004E000A009900D600440093004F00F5
:102264009200D700DC00DD0045000B00010098005F
:102274004E000A009900D600440093004F009200DB
:10228400D700DC00DD0045000B00010098004E0083
:102294000A009900D600440093004F009200D70032
:1022A400DC00DD0045000B0001002D00250050007E
:1022B4006500DF00D0006600A800BF00960007009C
:1022C400C300FB00AD00260027000A002F007F009A
:1022D4001A00C50015007300DB006400F200F5006D
:1022E4003600CD006000460061006B0044003B00F6
:1022F4002100E400F100820059003D00CF003A00C3
:102304000C00C1005A009400BA001E00E2003E0016
:102314006D004900B300AE00A2003D008300E80058
:1023240060008C0099007F0034003300A800630033
:1023340062003800AC0016000800EA00D400B900BE
:10234400F0004300ED004F007200F1001900790025
:10235400F5006C00130027001400BC00DF00B4007B
:102364006A00B900FD0011003B008400E6009600FD
:102374001C00AC002C0020000300C100BE00D600ED
:102384001A0033004D0091003700A7002400E90033
:102394007400600005005E00DF0067002E00550039
:1023A400D700AE005900F4006C0026009C00A00089
:1023B4000F00E2007C00A9007500B500A1006B00CD
:1023C4001A0066002900FC0057005900F500AD0012
:1023D4002D003500B900E7004400C500A8009100B5
:1023E4006E00A6003D00360026002500BA007800E5
:1023F40086003B001500BF00C400DD002400CF00B0
:10240400CD00270050000F00D900ED00210073001B
:102414009600EA00EE006100FE006700B800390093
:10242400E3000700AC00B0003A00C00028000F0031
:10243400AF009300150063003700A6007A00D800AF
:102444002D006A00DE006B003400850055007B001F
:102454003200C3000B0020000C008C00BC00B6004E
:102464007C009E0073003100E0002400C9009F003E
:102474002F005B007C002100D1009500A600F40031
:1024840047007500EE00C200DF001F004F0073001C
:102494006200A7003D00D8005A00B500BE00FE004F
:1024A400CE00DA00D5009600E0004800360098001F
:1024B4006A00A100B100BD00B8007200AB00380092
:1024C4001200830026008F0046006500D9003B00FF
:1024D400A800FC008200C3002C003A002700BA00C8
:1024E400E7001A0017009200DB00380024003600D1
:1024F4002D00B5006100DF003E002100BF006E002A
:102504005900FB0008000C000A000F008600C500FB
:102514002900B300640056007D00CD002500B900F9
:10252400030005000F00110033005500FF001C00DC
:1025340024006C00B400C1005E00E2003B004D00CA
:10254400D7006400AC00E90026006A00BE00DF008A
:102554007C0084009100AE00EF002C0074009C000D
:10256400B900D6006700A900E60037005900EB0067
:1025740020006000A000FD001A000600140078008E
:102584000D002E00E40062005100FB002000C0009A
:10259400BA00BB00BD00A900D100DC00F2001600A7
:1025A40074002500DE00FE003E0084003F0082002F
:1025B4002B00FA002600D400C200B60093004D00A0
:1025C400B3008D0009003600B4009F00650043008D
:1025D400970055000C005000E700D000A900BF0090
:1025E4005700C3007D002600B5002F00D900C500A8
:1025F4005500DB00DD00F50008006000BA006B0048
:10260400CE002100910082005600CF002D00C100B1
:1026140065008600660092009600A600FB0040005C
:102624002700B9007F003E001500FC00640018007C
:102634005D006B0081008400FC00C8001200AD0046
:1026440003002800E700BD009E009100190045002A
:102654003600EA00050078003400DA00BF00AE005E
:102664002B00CF005A0023000F0088005C00730089
:10267400DC00EF007D004C00EE00650011008500D9
:10268400E400950079002C00300069007F00F80018
:102694004D00F100E000F70040009C005F00B60030
:1026A400EC00AA009600A2000B00CD00D4005E004E
:1026B40086008500D5006E00EF00FA002D0023008F
:1026C4001E001A00DA006300820045006C008F00CF
:1026D4002800D300CE008400E5000700900002002B
:1026E40060006000B900DF003B005500960059000F
:1026F4002C002600C1000F001A00A90091006400FC
:10270400240001006000B900DF003B005500960082
:1027140059002C002600C1000F001A00A9009100E6
:102724006400240001006000B900DF003B00550094
:10273400960059002C002600C1000F000100020081
:102744000400080010002000400080001D003A0032
:102754007400E800CD008700130026004C009800A8
:102764002D005A00B4007500EA00C9008F00030070
:1027740006000C00180030006000C0009D00270017
:102784004E009C0025004A00940035006A00D400E5
:10279400B5007700EE00C1009F00230046008C00C6
:1027A40005000A00140028005000A0005D00BA00D3
:1027B4006900D200B9006F00DE00A1005F00BE0016
:1027C4006100C20099002F005E00BC006500CA00D1
:1027D40089000F001E003C007800F000FD00E700B7
:1027E400D300BB006B00D600B1007F00FE00E10007
:1027F400DF00A3005B00B6007100E200D900AF0067
:102804004300860011002200440088000D001A00D5
:1028140034006800D000BD006700CE0081001F00B6
:102824003E007C00F800ED00C70093003B007600FA
:10283400EC00C500970033006600CC00850017004B
:102844002E005C00B8006D00DA00A9004F009E0065
:1028540021004200840015002A005400A8004D0005
:102864009A0029005200A4005500AA0049009200D1
:1028740039007200E400D500B7007300E600D1000F
:10288400BF006300C60091003F007E00FC00E5002D
:10289400D700B3007B00F600F100FF00E300DB008B
:1028A400AB004B00960031006200C4009500370075
:1028B4006E00DC00A5005700AE0041008200190044
:1028C40032006400C8008D0007000E001C003800B0
:1028D4007000E000DD00A7005300A6005100A20034
:1028E4005900B2007900F200F900EF00C3009B0028
:1028F4002B005600AC0045008A0009001200240099
:10290400480090003D007A00F400F500F700F30061
:10291400FB00EB00CB008B000B0016002C005800D2
:10292400B0007D00FA00E900CF0083001B003600F0
:102934006C00D800AD0047008E00010002000400C6
:1029440030313233343536373839414243444546E1
:0829540060D9FF7F01000000C3
:08295C00491C0008F10100080C
:04296400C90100089D
:0400000508001BFDD7
:00000001FF
