:020000040800F2
:1000000000000220E57F00082D8000082D800008F8
:100010002D8000082D8000082D80000800000000C1
:100020000000000000000000000000002D8000081B
:100030002D800008000000002D8000082D800008A1
:1000400000000000000000000000000000000000B0
:1000500000000000000000000000000000000000A0
:100060000000000000000000000000000000000090
:100070000000000000000000000000000000000080
:100080000000000000000000000000000000000070
:100090000000000000000000000000000000000060
:1000A0000000000000000000000000000000000050
:1000B0000000000000000000000000000000000040
:1000C0000000000000000000000000000000000030
:1000D0000000000000000000000000000000000020
:1000E0000000000000000000000000000000000010
:1000F0000000000000000000000000000000000000
:1001000000000000000000000000000000000000EF
:1001100000000000000000000000000000000000DF
:1001200000000000000000000000000000000000CF
:1001300000000000000000000000000000000000BF
:1001400000000000000000000000000000000000AF
:10015000000000000000000000000000000000009F
:10016000000000000000000000000000000000008F
:10017000000000000000000000000000000000007F
:08018000000000000000000077
:100200000348044B834202D0034B03B118477047A5
:100210000000002000000020000000000548064B00
:100220001B1AD90F01EBA301491002D0034B03B1F4
:100230001847704700000020000000200000000068
:1002400010B5064C237843B9FFF7DAFF044B13B11E
:100250000448AFF300800123237010BD000000208C
:10026000000000004480000808B5044B1BB104499D
:100270000448AFF30080BDE80840CFE7000000006D
:10028000040000204480000880B584B000AF78608E
:1002900039603968786803F06CF83B688033202156
:1002A000184600F08BFF0023FB600BE0FB687A68C8
:1002B0001A44FB68A03339680B4412781A70FB6843
:1002C0000133FB60FB68B3F5287FEFDB00231846A2
:1002D0001037BD4680BD80B59EB002AFF860B960F2
:1002E0007A6007F1500320220021184606F0F0FD45
:1002F00007F1100340220021184606F0E9FD07F13E
:1003000050032021184600F059FF07F110034FF465
:1003100028727968184600F02AFD07F1500207F1AB
:1003200010002023019307F11003009320234021A4
:1003300002F0B6FF20220021B86806F0C9FD07F1DF
:10034000100307F150027968F86803F094F807F198
:100350001001203101232022B86800F0FDF80023AD
:1003600018467037BD4680BD80B5ADF5607D02AFE3
:1003700007F55E73A3F55B73186007F55E73A3F56D
:100380005C73196007F55E73A3F55D731A6007F57A
:10039000547320220021184606F09AFD07F5447395
:1003A00040220021184606F093FD07F534734022E1
:1003B0000021184606F08CFD07F52C732022002141
:1003C000184606F085FD07F55E73A3F55D731B689F
:1003D000A033C7F8743307F55E73A3F55C7207F5B5
:1003E0005E73A3F55D7307F554701268196803F026
:1003F000D2F807F52C734FF42872D7F87413184607
:1004000000F0B5FC07F5547207F544702023019302
:1004100007F52C7300932023402102F041FF07F5DC
:100420005E73A3F55A7318464FF428731A460021D9
:1004300006F04EFD07F5447307F5547207F11000FE
:10044000D7F8741303F017F807F1100107F55E737E
:10045000A3F55C734FF42872186800F046F8C7F8EB
:10046000700307F55E73A3F55C7307F52C704FF40A
:100470002872196800F07BFC07F55E73A3F55D73C5
:100480001B6803F1840207F534702023019307F5FC
:100490002C7300932023402102F002FF07F55E73C6
:1004A000A3F55B7320220021186806F011FD07F503
:1004B0004470203007F534712031D7F87033DBB247
:1004C000202200F049F807F54471203107F55E73EA
:1004D000A3F55B7001232022006800F03DF80023A3
:1004E000184607F55E77BD4680BD2DE9B00387B09D
:1004F00000AFF860B9607A600023FB7400237B6171
:100500000FE0FA687B6913441A78B9687B690B4479
:100510001B785340DAB2FB7C1343FB747B690133D5
:100520007B617A697B689A42EBD3FB7C00221C4694
:1005300015460023D4F1000863EB05094FF00002D3
:100540004FF000034FEAD9720023134618461C37B8
:10055000BD46BDE8B003704780B487B000AFF86017
:10056000B9607A60FB70FB785B42FB7000237B61B3
:1005700019E0FA687B6913441978FA687B691344B7
:100580001A78B8687B6903441B785340DAB2FB7869
:100590001340DAB2F8687B6903444A40D2B21A7059
:1005A0007B6901337B617A697B689A42E1D300BF42
:1005B00000BF1C37BD465DF8047B704780B584B032
:1005C00000AFF860B9607A603B6010E0BB68002261
:1005D0007968F86800F014FFF86801F091FA3A6859
:1005E000BB68D31A3B607A68BB6813447B603A6887
:1005F000BB689A42EAD23B68002B05D03B680022D8
:100600007968F86800F0FCFEBB68013B3A689A42E2
:100610000CD13B7E63F07F03DBB23B7601233A686B
:1006200007F11801F86800F0EBFE10E001233A68CA
:1006300007F11801F86800F0E3FE80233B76BB6801
:100640005A1E012307F11801F86800F0D9FE00BF17
:100650001037BD4680BD80B584B000AFF860B9608A
:100660007A603B600FE0786801F04AFA3B6800224C
:10067000F968786801F044F8FA683B681344FB6055
:10068000BB68013BBB60BB68002BECD100BF00BF67
:100690001037BD4680BD80B485B000AF78600023C0
:1006A000FB600CE0FB68DB007A68D1184FF00002B9
:1006B0004FF00003C1E90023FB680133FB60FB68D6
:1006C000182BEFD97B6803F1C8014FF000024FF0FF
:1006D0000003C1E9002300BF1437BD465DF8047B69
:1006E00070472DE9B04F88B000AFF861B9617A6109
:1006F0003B612DE0FB69C833D3E900231146FB6958
:10070000C833D3E90023BB699B1A0A467969F869A3
:1007100000F076FEFB69C833D3E90023BB69D31A26
:100720003A6913443B61FB69C833D3E90023BB69D1
:100730009B1A7A6913447B61FB6903F1C8014FF08E
:1007400000024FF00003C1E90023F86901F0D8F975
:100750003B690022BB60FA60FB69C833D3E9002320
:10076000B9688C18F96841EB0305BB6900229A4609
:100770009346544575EB0B03BCD2FB69C833D3E9F0
:1007800000233B697969F86900F03AFEFB69C833D8
:10079000D3E900233969002088468146F969C831C8
:1007A00012EB0800386043EB09037B60D7E90034A3
:1007B000C1E9003400BF2037BD46BDE8B08FB0B5F9
:1007C00084B000AFF860B9601346FB71FB68C833B2
:1007D000D3E90023B968013900200C460546AB4235
:1007E00008BFA2420ED1FB7963F07F03DBB2FB713D
:1007F000FB68C833D3E90023F91D0123F86800F032
:10080000FFFD11E0FB68C833D3E90023F91D012384
:10081000F86800F0F5FD8023FB71BB685A1EF91DD6
:100820000123F86800F0ECFDFB6803F1C8014FF00C
:1008300000024FF00003C1E9002300BF1037BD469E
:10084000B0BD2DE9B04F88B000AF78613961FA6072
:10085000BB603B69002298469146FB68C833D3E9E8
:100860000023904579EB030302D23B69FB6105E06D
:10087000FB68C833D3E900231346FB61FB68C83328
:10088000D3E90023BB689A1AFB697969F86800F01C
:1008900037FF7A69FB6913447B613A69FB69D31AB4
:1008A0003B61FB68C833D3E90023F96900200C469B
:1008B0000546F968C831B2EB040A63EB050BC1E9E0
:1008C00000AB25E0F86801F01BF93A69BB689A4271
:1008D00002D23B69FB6101E0BB68FB61FB6900225E
:1008E0007969F86800F00CFF7A69FB6913447B6151
:1008F0003A69FB69D31A3B61BA68FB69D21AFB6893
:10090000C83300213A607960D7E90012C3E90012C8
:100910003B69002BD6D100BF00BF2037BD46BDE8E4
:10092000B08F80B582B000AF78607B681846FFF763
:10093000B2FE00BF0837BD4680BD80B584B000AFB1
:10094000F860B9607A60F8687B68BA68A821FFF738
:10095000C8FE00BF1037BD4680BD80B582B000AF75
:1009600078607B681F22A8211846FFF728FF00BF88
:100970000837BD4680BD80B584B000AFF860B9606F
:100980007A607A68A823B968F868FFF75AFF00BF51
:100990001037BD4680BD80B582B000AF7860396049
:1009A000D0223968786806F0E5FA00BF0837BD46FE
:1009B00080BD80B483B000AF786000BF0C37BD4607
:1009C0005DF8047B704780B582B000AF78607B68CB
:1009D0001846FFF760FE00BF0837BD4680BD80B5F2
:1009E00084B000AFF860B9607A60F8687B68BA6874
:1009F0008821FFF776FE00BF1037BD4680BD80B569
:100A000082B000AF78607B681F2288211846FFF70C
:100A1000D6FE00BF0837BD4680BD80B584B000AFAC
:100A2000F860B9607A607A688823B968F868FFF777
:100A300008FF00BF1037BD4680BD80B582B000AF53
:100A400078603960D0223968786806F093FA00BF80
:100A50000837BD4680BD80B483B000AF786000BF6A
:100A60000C37BD465DF8047B704780B58AB002AF95
:100A7000F8607A603B600B467B810023FB610CE0F1
:100A8000FA68FB69DB00D1184FF000024FF0000359
:100A9000C1E90023FB690133FB61FB69182BEFD926
:100AA00001233B75A8237B750123BB750023FB75D0
:100AB00001233B7610237B767B89DBB2BB767B8977
:100AC0001B0A9BB2DBB2FB76F86807F1140108231E
:100AD000002200F095FCFB68184601F011F8F86858
:100AE000042300933B687A68A821FFF767FD00BFE5
:100AF0002037BD4680BD80B584B000AFF860B960D6
:100B00007A607A68A823B968F868FFF7A4FD00BF87
:100B10001037BD4680BD80B5BAB000AFF860B9608F
:100B20003B601346FB8007F118031846FFF7B3FD3F
:100B300001233B74A8237B740123BB740023FB7443
:100B400001233B7510237B75FB88DBB2BB75FB88EB
:100B50001B0A9BB2DBB2FB7507F1100107F118000D
:100B60000823002200F04CFC07F11803184600F09F
:100B7000C7FF07F11800D7F8F0303A68A821FFF74F
:100B8000B0FD07F118030422A8211846FFF717FE4D
:100B900007F11802A823B968F868FFF752FE00BFF2
:100BA000E837BD4680BD80B588B002AFF860B96057
:100BB0007A6000237B610CE0FA687B69DB00D11866
:100BC0004FF000024FF00003C1E900237B690133BD
:100BD0007B617B69182BEFDDF8681F2300937B682E
:100BE000BA68A821FFF7EAFC00BF1837BD4680BDF0
:100BF00080B584B000AFF860B9607A607A68A823E5
:100C0000B968F868FFF727FD00BF1037BD4680BD03
:100C100080B5B8B000AFF860B9607A603B6007F1AA
:100C200010031846FFF737FD07F110003B687A689C
:100C3000A821FFF756FD07F110031F22A82118462F
:100C4000FFF7BDFD07F11002A823B968F868FFF7A8
:100C5000F8FD00BFE037BD4680BD80B483B000AF73
:100C6000786000BF0C37BD465DF8047B704780B5E7
:100C700082B000AF78603960C8223968786806F0C1
:100C800079F900BF0837BD4680BD80B588B002AF96
:100C9000F860B9607A6000237B610CE0FA687B69D8
:100CA000DB00D1184FF000024FF00003C1E9002330
:100CB0007B6901337B617B69182BEFDDF8681F23AB
:100CC00000937B68BA688821FFF778FC00BF18376B
:100CD000BD4680BD80B584B000AFF860B9607A6071
:100CE0007A688823B968F868FFF7B5FC00BF103749
:100CF000BD4680BD80B5B8B000AFF860B9607A601D
:100D00003B6007F110031846FFF7C5FC07F1100020
:100D10003B687A688821FFF7E4FC07F110031F2283
:100D200088211846FFF74BFD07F110028823B968A8
:100D3000F868FFF786FD00BFE037BD4680BD80B490
:100D400083B000AF786000BF0C37BD465DF8047B10
:100D5000704780B582B000AF78603960C8223968CA
:100D6000786806F007F900BF0837BD4680BD80B53A
:100D7000B8B000AFF860B9607A6007F110031846A8
:100D8000FFF789FC07F110007B68BA688821FFF73C
:100D9000A8FC07F11003062288211846FFF70FFD73
:100DA00007F1100288232021F868FFF74AFD00BFF1
:100DB000E037BD4680BD80B582B000AF78607B680B
:100DC0001846FFF768FC00BF0837BD4680BD80B5F8
:100DD00084B000AFF860B9607A60F8687B68BA6880
:100DE0008821FFF77EFC00BF1037BD4680BD80B56F
:100DF000A6B000AF786039603B68062288211846AB
:100E0000FFF7DDFC3A6807F10C0088230121FFF7AA
:100E100022FC0023C7F894300FE07A68D7F89430AA
:100E2000134407F10C01D7F894200A4412781A7081
:100E3000D7F894300133C7F89430D7F894301F2B8B
:100E4000EBD900BF00BF9837BD4680BD80B582B0EA
:100E500000AF78603960D0223968786806F08AF887
:100E600000BF0837BD4680BD80B483B000AF786056
:100E700000BF0C37BD465DF8047B704780B582B07B
:100E800000AF78607B681846FFF705FC00BF0837A5
:100E9000BD4680BD80B584B000AFF860B9607A60AF
:100EA000F8687B68BA686821FFF71BFC00BF103741
:100EB000BD4680BD80B59EB000AF786039603B68AC
:100EC000062268211846FFF77AFC3A6807F10C0001
:100ED00068230121FFF7BFFB00237B670BE07A68E3
:100EE0007B6F134407F10C017A6F0A4412781A7071
:100EF0007B6F01337B677B6F2F2BF0D900BF00BF67
:100F00007837BD4680BD80B582B000AF786039606B
:100F1000D0223968786806F02DF800BF0837BD4642
:100F200080BD80B483B000AF786000BF0C37BD4691
:100F30005DF8047B704780B5B8B000AFF860B96069
:100F40007A6007F110031846FFF7A5FB07F11000C0
:100F50007B68BA686821FFF7C4FB07F1100306221B
:100F600068211846FFF72BFC07F110026823302197
:100F7000F868FFF766FC00BFE037BD4680BD80B56E
:100F8000B8B000AFF860B9607A6007F11003184696
:100F9000FFF781FB07F110007B68BA684821FFF773
:100FA000A0FB07F11003062248211846FFF707FCB3
:100FB00007F1100248234021F868FFF742FC00BF08
:100FC000E037BD4680BD80B582B000AF78607B68F9
:100FD0001846FFF760FB00BF0837BD4680BD80B5EF
:100FE00084B000AFF860B9607A60F8687B68BA686E
:100FF0004821FFF776FB00BF1037BD4680BD80B5A6
:1010000096B000AF786039603B68062248211846E8
:10101000FFF7D5FB3A6807F10C0048230121FFF7E1
:101020001AFB00237B650BE07A687B6D134407F1A4
:101030000C017A6D0A4412781A707B6D01337B655E
:101040007B6D3F2BF0D900BF00BF5837BD4680BD38
:1010500080B582B000AF78603960D0223968786896
:1010600005F088FF00BF0837BD4680BD80B483B05F
:1010700000AF786000BF0C37BD465DF8047B704759
:1010800080B58AB002AFF8607A603B600B467B8126
:101090000023FB610CE0FA68FB69DB00D1184FF01C
:1010A00000024FF00003C1E90023FB690133FB613B
:1010B000FB69182BEFD901233B7588237B7501232E
:1010C000BB750023FB7501233B7610237B767B8960
:1010D000DBB2BB767B891B0A9BB2DBB2FB76F8687E
:1010E00007F114010823002200F08AF9FB68184672
:1010F00000F006FDF868042300933B687A688821B5
:10110000FFF75CFA00BF2037BD4680BD80B584B0D4
:1011100000AFF860B9607A607A688823B968F868C7
:10112000FFF799FA00BF1037BD4680BD80B5BAB051
:1011300000AFF860B9603B601346FB8007F118030D
:101140001846FFF7A8FA01233B7488237B74012318
:10115000BB740023FB7401233B7510237B75FB8854
:10116000DBB2BB75FB881B0A9BB2DBB2FB7507F1D8
:10117000100107F118000823002200F041F907F1DF
:101180001803184600F0BCFC07F11800D7F8F0303F
:101190003A688821FFF7A5FA07F11803042288218D
:1011A0001846FFF70CFB07F118028823B968F868A6
:1011B000FFF747FB00BFE837BD4680BD80B584B070
:1011C00000AF786039601AE006F098F80346FB60DB
:1011D0007B685A1C7A603A7B1A707B685A1C7A606A
:1011E0007A7B1A707B685A1C7A60BA7B1A707B68AB
:1011F0005A1C7A60FA7B1A703B68043B3B603B6880
:10120000042BE1D83B68002B14D006F077F8034696
:10121000FB600CE03B685A1E7B68591C79601032F9
:101220003A4412F8042C1A703B68013B3B603B685F
:10123000002BEFD1002318461037BD4680BD0000BB
:10124000000000000000000000000000000000009E
:10125000000000000000000000000000000000008E
:10126000000000000000000000000000000000007E
:10127000000000000000000000000000000000006E
:10128000000000000000000000000000000000005E
:10129000000000000000000000000000000000004E
:1012A000000000000000000000000000000000003E
:1012B000000000000000000000000000000000002E
:1012C000000000000000000000000000000000001E
:1012D000000000000000000000000000000000000E
:1012E00000000000000000000000000000000000FE
:1012F00000000000000000000000000000000000EE
:10130000704700BFAFF30080AFF30080AFF3008001
:10131000AFF30080AFF30080AFF30080AFF3008045
:10132000AFF30080AFF30080AFF30080AFF3008035
:10133000AFF30080AFF30080AFF30080AFF3008025
:10134000000000000000000000000000000000009D
:10135000000000000000000000000000000000008D
:10136000000000000000000000000000000000007D
:10137000000000000000000000000000000000006D
:10138000000000000000000000000000000000005D
:10139000000000000000000000000000000000004D
:1013A000000000000000000000000000000000003D
:1013B000000000000000000000000000000000002D
:1013C000000000000000000000000000000000001D
:1013D000000000000000000000000000000000000D
:1013E00000000000000000000000000000000000FD
:1013F00000000000000000000000000000000000ED
:1014000003B32DE9F04122F00704001912F007029E
:101410000BD01C00C2F10805AC4200DD2C00A3EB90
:101420000408230000F0ECF84346DA0804D098469C
:1014300000F066F808F0070313B1002200F0E0F8AE
:10144000BDE8F081704700BFAFF30080AFF30080CC
:10145000AFF30080AFF30080AFF30080AFF3008004
:10146000AFF30080AFF30080AFF30080AFF30080F4
:10147000AFF30080AFF30080AFF30080AFF30080E4
:10148000000000000000000000000000000000005C
:10149000000000000000000000000000000000004C
:1014A000000000000000000000000000000000003C
:1014B000000000000000000000000000000000002C
:1014C000000000000000000000000000000000001C
:1014D000000000000000000000000000000000000C
:1014E00000000000000000000000000000000000FC
:1014F00000000000000000000000000000000000EC
:1015000051F8044B51F8045BD0E9006704F05533FF
:1015100043EA530303F0333343EA930303F00F33F7
:1015200043EA131303F0FF1363F30F2386EA132632
:1015300005F0553343EA530303F0333343EA93038F
:1015400003F00F3343EA131303F0FF1343EA1323AB
:1015500086EA034604F0AA3343EA430303F0CC339C
:1015600043EA830303F0F03343EA031303F0FF235A
:1015700043EA032387EA134705F0AA3343EA430308
:1015800003F0CC3343EA830303F0F03343EA03135D
:1015900003F0FF2343EA03236FF30F035F40E0E808
:1015A0000267013AACD17047AFF30080AFF300801F
:1015B000AFF30080AFF30080AFF30080AFF30080A3
:1015C000000000000000000000000000000000001B
:1015D000000000000000000000000000000000000B
:1015E00000000000000000000000000000000000FB
:1015F00000000000000000000000000000000000EB
:101600000024002530B46A4411F8015B02F8015B44
:10161000013BF9D130BCD0E9006704F0553343EA0F
:10162000530303F0333343EA930303F00F3343EAE6
:10163000131303F0FF1363F30F2386EA132605F059
:10164000553343EA530303F0333343EA930303F080
:101650000F3343EA131303F0FF1343EA132386EA1D
:10166000034604F0AA3343EA430303F0CC3343EACE
:10167000830303F0F03343EA031303F0FF2343EA49
:10168000032387EA134705F0AA3343EA430303F031
:10169000CC3343EA830303F0F03343EA031303F04C
:1016A000FF2343EA03236FF30F035F40E0E8026781
:1016B000704700BFAFF30080AFF30080AFF300804E
:1016C000000000000000000000000000000000001A
:1016D000000000000000000000000000000000000A
:1016E00000000000000000000000000000000000FA
:1016F00000000000000000000000000000000000EA
:1017000003B32DE9F04122F00704001912F007029B
:101710000BD01C00C2F10805AC4200DD2C00A3EB8D
:101720000408230000F0ECF84346DA0804D0984699
:1017300000F066F808F0070313B1002200F0E0F8AB
:10174000BDE8F081704700BFAFF30080AFF30080C9
:10175000AFF30080AFF30080AFF30080AFF3008001
:10176000AFF30080AFF30080AFF30080AFF30080F1
:10177000AFF30080AFF30080AFF30080AFF30080E1
:101780000000000000000000000000000000000059
:101790000000000000000000000000000000000049
:1017A0000000000000000000000000000000000039
:1017B0000000000000000000000000000000000029
:1017C0000000000000000000000000000000000019
:1017D0000000000000000000000000000000000009
:1017E00000000000000000000000000000000000F9
:1017F00000000000000000000000000000000000E9
:10180000F0E80245230065F31F446FF30F0545EA36
:10181000134584EA142303F47F435C4084EA0324E1
:1018200084EA141303F0F0135C4084EA031484EA9E
:10183000940303F00C335C4084EA830484EA540389
:1018400003F022335C4084EA430485EA152303F461
:101850007F435D4085EA032585EA151303F0F01305
:101860005D4085EA031585EA950303F00C335D407E
:1018700085EA830585EA550303F022335D4085EA56
:10188000430541F8044B013A41F8045BB8D1704775
:10189000AFF30080AFF30080AFF30080AFF30080C0
:1018A000AFF30080AFF30080AFF30080AFF30080B0
:1018B000AFF30080AFF30080AFF30080AFF30080A0
:1018C0000000000000000000000000000000000018
:1018D0000000000000000000000000000000000008
:1018E00000000000000000000000000000000000F8
:1018F00000000000000000000000000000000000E8
:10190000F0E80245260065F31F446FF30F0545EA32
:10191000164584EA142606F47F46744084EA0624B9
:1019200084EA141606F0F016744084EA061484EA79
:10193000940606F00C36744084EA860484EA540661
:1019400006F02236744084EA460485EA152606F439
:101950007F46754085EA062585EA151606F0F016DD
:10196000754085EA061585EA950606F00C36754041
:1019700085EA860585EA550606F02236754085EA31
:10198000460530B46A4412F8014B013B01F8014BA3
:10199000F9D102B0704700BFAFF30080AFF3008011
:1019A000AFF30080AFF30080AFF30080AFF30080AF
:1019B000AFF30080AFF30080AFF30080AFF300809F
:1019C0000000000000000000000000000000000017
:1019D0000000000000000000000000000000000007
:1019E00000000000000000000000000000000000F7
:1019F00000000000000000000000000000000000E7
:101A0000010000000000000000000000890000004C
:101A1000000000008B00008000000000808000803B
:101A2000010000008B0000000100000000800000A9
:101A3000010000008880008001000000820000801A
:101A4000000000000B000000000000000A00000081
:101A50000100000082800000000000000380000000
:101A6000010000008B800000010000000B000080DE
:101A7000010000008A000080010000008100008059
:101A800000000000810000800000000008000080CD
:101A900000000000830000000000000003800080C0
:101AA00001000000888000800000000088000080A5
:101AB0000100000000800000000000008280008023
:101AC000FF000000AFF30080AFF30080AFF30080B1
:101AD000AFF30080AFF30080AFF30080AFF300807E
:101AE000AFF30080AFF30080AFF30080AFF300806E
:101AF000AFF30080AFF30080AFF30080AFF300805E
:101B0000AFF204112DE9F05F86B00591D0F82030D6
:101B1000D0F84810D0F87050D0F898B0D0F8C0C0C5
:101B200083EA010383EA050383EA0B0383EA0C03D8
:101B3000D0F80C70D0F83410D0F85C50D0F884B0E5
:101B4000D0F8ACC087EA010787EA050787EA0B07E8
:101B500087EA0C0783EAF776D0F81440D0F83C10F7
:101B6000D0F86450D0F88CB0D0F8B4C0CDF8006094
:101B700084EA010484EA050484EA0B0484EA0C0480
:101B800083EA0406D0F81830D0F84010D0F8685036
:101B9000D0F890B0D0F8B8C0CDF80C6083EA01035B
:101BA00083EA050383EA0B0383EA0C0387EA030253
:101BB000D0F80070D0F82810D0F85050D0F878B095
:101BC000D0F8A0C087EA010787EA050787EA0B0774
:101BD00087EA0C0787EAF47AD0F81C40D0F8441062
:101BE000D0F86C50D0F894B0D0F8BCC084EA0104AE
:101BF00084EA050484EA0B0484EA0C0484EA070EF0
:101C0000D0F80870D0F83010D0F85850D0F880B024
:101C1000D0F8A8C087EA010787EA050787EA0B071B
:101C200087EA0C0787EAF476D0F82440D0F84C1005
:101C3000D0F87450D0F89CB0D0F8C4C0CDF8106083
:101C400084EA010484EA050484EA0B0484EA0C04AF
:101C500084EA0708D0F81070D0F83810D0F8605037
:101C6000D0F888B0D0F8B0C0CDF8048087EA01077A
:101C700087EA050787EA0B0787EA0C0787EAF47902
:101C8000D0F80440D0F82C10D0F85450D0F87CB0E4
:101C9000D0F8A4C0CDF8089084EA010484EA0504D1
:101CA00084EA0B0484EA0C0484EA070B83EAF47CDC
:101CB000D0F81830D0F84840D0F85450D0F88460AC
:101CC000D0F8B470C0F8541089EA03038CEA040415
:101CD00088EA05058BEA060682EA070725EA3461E9
:101CE00081EA3351C0F8541026EA755181EA743103
:101CF000C0F8841027EA362181EA7571C0F8B41063
:101D000023EAF73181EAF651C0F8181024EA33715A
:101D100081EAF721D0F80830D0F83C40D0F868507C
:101D2000D0F89C60D0F8A470C0F848108AEA030389
:101D300082EA040489EA05058EEA060688EA0707AE
:101D400025EA742181EA3331C0F8A41026EA35610E
:101D500081EA7401C0F8081027EA761181EA7571EA
:101D6000C0F83C1023EAF75181EA3671C0F86810D8
:101D700024EAF30181EAB761DDF80080D0F824306D
:101D8000D0F82840D0F85850D0F88C60D0F8B8700F
:101D9000C0F89C108EEA030388EA04048AEA050569
:101DA00082EA060689EA070725EAF44181EAF35147
:101DB000C0F8281026EAF50181EAB451C0F858109D
:101DC00027EA365181EAF551C0F88C1023EAB74171
:101DD00081EAB611C0F8B81024EA331181EAB7518C
:101DE000D0F81430D0F84040D0F87050D0F8786077
:101DF000D0F8AC70C0F8241082EA030389EA040426
:101E00008CEA050588EA06068BEA070725EA3461AD
:101E100081EA3351C0F8781026EA750181EA7461CD
:101E2000C0F8AC1027EA763181EAB531C0F8141059
:101E300023EAB77181EAF621C0F8401024EA337131
:101E400081EAB761DDF80C90D0F80030046B456E84
:101E5000D0F89460D0F8C070C0F8701088EA03031E
:101E60008AEA040482EA050589EA06068CEA07077D
:101E700026EA755181EA7451C0F8301027EA3671AC
:101E800081EA7541C0F8641023EA776181EA7651EE
:101E9000C0F8941024EAB35181EAF731C0F8C010B9
:101EA00025EA040505990C6883EAB52384EA030151
:101EB000DDF81020D0F81C30D0F84C40D0F850504D
:101EC000D0F88060D0F8B070C0F8001089EA030341
:101ED0008EEA040488EA05058AEA060682EA07070C
:101EE00025EAF45181EAF341C0F8501026EA755111
:101EF00081EA3431C0F8801027EA362181EA757111
:101F0000C0F8B01023EA374181EA3661C0F81C10EE
:101F100024EA337181EA3731D0F80C30D0F83840F8
:101F2000D0F86C50D0F89860D0F8A070C0F84C1081
:101F30008BEA030382EA040489EA05058CEA0606B3
:101F400088EA070725EAB42181EA3331C0F8A010F6
:101F500026EAF55181EA7401C0F80C1027EA7611DF
:101F600081EA3571C0F8381023EA376181EA767169
:101F7000C0F86C1024EAB30181EAB761DDF804808F
:101F8000D0F82030D0F82C40D0F85C50D0F88860E1
:101F9000D0F8BC70C0F898108CEA030388EA0404F7
:101FA0008BEA050582EA060689EA070725EAF44175
:101FB00081EA3361C0F82C1026EAB50181EA745138
:101FC000C0F85C1027EA765181EAF551C0F8881014
:101FD00023EA774181EAB611C0F8BC1024EA7311F4
:101FE00081EAB751D0F81030D0F84440D0F874509E
:101FF000D0F87C60D0F8A870C0F8201082EA030303
:1020000089EA04048EEA050588EA06068AEA0707D3
:1020100025EA346181EA7351C0F87C1026EA750123
:1020200081EA7461C0F8A81027EA363181EA753177
:10203000C0F8101023EAB77181EAB621C0F8441045
:1020400024EA737181EAF761DDF80890D0F8043072
:10205000446B056ED0F89060D0F8C470C0F874106E
:1020600088EA03038BEA040482EA050589EA060686
:102070008EEA070726EA755181EA3451C0F8341018
:1020800027EA767181EAB541C0F8601023EA7761EA
:1020900081EAB651C0F8901024EAB35181EAF731D1
:1020A000C0F8C41025EAF47505994C6883EAF52355
:1020B00084EA030ED0F8C030D0F84810D0F8985019
:1020C000D0F824B0D0F874C0C0F804E083EA31330B
:1020D00083EAF54383EA3B1383EABC63D0F83470A8
:1020E000D0F88010D0F80850D0F85CB0D0F8ACC070
:1020F00087EA315787EAB51787EAFB0787EABC57B3
:102100004FEAB32383EA7756D0F86040D0F8B01096
:10211000D0F83C50D0F888B0D0F814C0CDF80060AA
:1021200084EA712484EAB57484EAFB2484EABC144A
:1021300083EA7466D0F89430D0F81810D0F86C5058
:10214000D0F8B8B0D0F844C0CDF80C6083EAB14301
:1021500083EAF57383EABB4383EA7C0383EAB752DD
:10216000D0F80070D0F85410D0F8A050D0F828B0B3
:10217000D0F87CC087EAB17787EAF54787EAFB6742
:1021800087EA3C3787EA346AD0F89040D0F81C10D0
:10219000D0F86850D0F8BCB0D0F840C084EAB14460
:1021A00084EA050484EAFB4484EA7C0484EA070E9A
:1021B000D0F83070D0F88410D0F80C50D0F858B067
:1021C000D0F8A8C087EA315787EAF51787EAFB07F6
:1021D00087EABC574FEA775787EAF476D0F8C440CD
:1021E000D0F84C10D0F89C50D0F820B0D0F870C087
:1021F000CDF8106084EA313484EAF54484EA3B1473
:1022000084EAFC6487EAB428D0F86470D0F8B4108B
:10221000D0F83850D0F88CB0D0F810C0CDF8048089
:1022200087EA312787EAB57787EAFB2787EABC1771
:102230004FEA776787EA7429D0F80440D0F8501045
:10224000D0F8A450D0F82CB0D0F878C0CDF80890D1
:1022500084EAF17484EA355484EAFB6484EA7C34C9
:1022600084EA070B83EAF47CD0F89430D0F8484035
:10227000D0F8A450D0F85C60D0F81470C0F8A41066
:1022800089EA03038CEAB45488EA35558BEA76660A
:1022900082EAF77725EA346181EA3351C0F8A41065
:1022A00026EA755181EA7431C0F85C1027EA3621BC
:1022B00081EA7571C0F8141023EAF73181EAF6510A
:1022C000C0F8941024EA337181EAF721D0F8303055
:1022D000D0F8B040D0F86C50D0F82060D0F87870CA
:1022E000C0F848108AEA735382EAB40489EAF575A3
:1022F0008EEAB63688EA773725EA742181EA3331E7
:10230000C0F8781026EA356181EA7401C0F830100F
:1023100027EA761181EA7571C0F8B01023EAF75107
:1023200081EA3671C0F86C1024EAF30181EAB761E2
:10233000DDF80080D0F8C430D0F85440D0F80C500C
:10234000D0F88860D0F84470C0F820108EEAB3232B
:1023500088EAB4748AEA357582EA361689EA77071C
:1023600025EAF44181EAF351C0F8541026EAF50158
:1023700081EAB451C0F80C1027EA365181EAF551D0
:10238000C0F8881023EAB74181EAB611C0F84410BA
:1023900024EA331181EAB751D0F86030D0F8184000
:1023A000D0F89850D0F82860D0F8AC70C0F8C410BD
:1023B00082EA736389EAB4448CEA757588EAF66642
:1023C0008BEA373725EA346181EA3351C0F82810A7
:1023D00026EA750181EA7461C0F8AC1027EA76310B
:1023E00081EAB531C0F8601023EAB77181EAF621BD
:1023F000C0F8181024EA337181EAB761DDF80C9057
:10240000D0F80030D0F88440C56BD0F8BC60476F7E
:10241000C0F8981088EA03038AEA742482EAF55522
:1024200089EAF6468CEA371726EA755181EA745133
:10243000C0F8841027EA367181EA7541C0F83C1073
:1024400023EA776181EA7651C0F8BC1024EAB351DF
:1024500081EAF731C0F8741025EA040505998C6803
:1024600083EAB52384EA0301DDF81020D0F8903028
:10247000D0F84C40D0F8A050D0F85860D0F8107088
:10248000C0F8001089EA03038EEAB45488EAF545DF
:102490008AEA366682EAF77725EAF45181EAF3415F
:1024A000C0F8A01026EA755181EA3431C0F85810FE
:1024B00027EA362181EA7571C0F8101023EA374106
:1024C00081EA3661C0F8901024EA337181EA37312D
:1024D000D0F83430D0F8B440D0F86850D0F8246048
:1024E000D0F87C70C0F84C108BEAB35382EA7404C5
:1024F00089EA05058CEAB63688EA373725EAB42139
:1025000081EA3331C0F87C1026EAF55181EA740182
:10251000C0F8341027EA761181EA3571C0F8B4109A
:1025200023EA376181EA7671C0F8681024EAB301C2
:1025300081EAB761DDF80480D0F8C030D0F85040AF
:10254000D0F80850D0F88C60D0F84070C0F8241053
:102550008CEAB32388EAF4748BEA357582EA36167E
:1025600089EA770725EAF44181EA3361C0F850101F
:1025700026EAB50181EA7451C0F8081027EA7651BD
:1025800081EAF551C0F88C1023EA774181EAB6114F
:10259000C0F8401024EA731181EAB751D0F86430D2
:1025A000D0F81C40D0F89C50D0F82C60D0F8A8701F
:1025B000C0F8C01082EA736389EAB4448EEA757584
:1025C00088EAF6668AEAF72725EA346181EA7351D8
:1025D000C0F82C1026EA750181EA7461C0F8A810D1
:1025E00027EA363181EA7531C0F8641023EAB77101
:1025F00081EAB621C0F81C1024EA737181EAF76100
:10260000DDF80890D0F80430D0F88040856BD0F821
:10261000B860076FC0F89C1088EA03038BEAB42403
:1026200082EAF55589EAB6468EEA771726EA7551A9
:1026300081EA3451C0F8801027EA767181EAB54109
:10264000C0F8381023EA776181EAB651C0F8B810B3
:1026500024EAB35181EAF731C0F8701025EAF47525
:102660000599CC6883EAF52384EA030ED0F8743028
:10267000D0F84810D0F82450D0F8C4B0D0F89CC09E
:10268000C0F804E083EA313383EAF54383EA3B137D
:1026900083EABC63D0F88070D0F85810D0F830507E
:1026A000D0F808B0D0F8ACC087EA315787EAB51740
:1026B00087EAFB0787EABC574FEAB32383EA7756DA
:1026C000D0F83840D0F81010D0F8B050D0F88CB016
:1026D000D0F860C0CDF8006084EA712484EAB57453
:1026E00084EAFB2484EABC1483EA7466D0F8BC3024
:1026F000D0F89410D0F86850D0F844B0D0F81CC08E
:10270000CDF80C6083EAB14383EAF57383EABB43F7
:1027100083EA7C0383EAB752D0F80070D0F8A410A3
:10272000D0F87C50D0F854B0D0F82CC087EAB177FC
:1027300087EAF54787EAFB6787EA3C3787EA346A26
:10274000D0F8B840D0F89010D0F86C50D0F840B025
:10275000D0F818C084EAB14484EA050484EAFB4452
:1027600084EA7C0484EA070ED0F88470D0F85C1008
:10277000D0F83450D0F80CB0D0F8A8C087EA315760
:1027800087EAF51787EAFB0787EABC574FEA7757CE
:1027900087EAF476D0F87040D0F84C10D0F820508A
:1027A000D0F8C0B0D0F898C0CDF8106084EA3134C9
:1027B00084EAF54484EA3B1484EAFC6487EAB4289A
:1027C000D0F83C70D0F81410D0F8B450D0F888B0DD
:1027D000D0F864C0CDF8048087EA312787EAB5775E
:1027E00087EAFB2787EABC174FEA776787EA7429ED
:1027F000D0F80440D0F8A010D0F87850D0F850B0FD
:10280000D0F828C0CDF8089084EAF17484EA3554F1
:1028100084EAFB6484EA7C3484EA070B83EAF47C70
:10282000D0F8BC30D0F84840D0F87850D0F80860E4
:10283000D0F86070C0F8781089EA03038CEAB454C9
:1028400088EA35558BEA766682EAF77725EA3461BD
:1028500081EA3351C0F8781026EA755181EA743163
:10286000C0F8081027EA362181EA7571C0F86010B7
:1028700023EAF73181EAF651C0F8BC1024EA33713B
:1028800081EAF721D0F88430D0F81040D0F86850B1
:10289000D0F8C060D0F82870C0F848108AEA7353A6
:1028A00082EAB40489EAF5758EEAB63688EA7737A3
:1028B00025EA742181EA3331C0F8281026EA35610F
:1028C00081EA7401C0F8841027EA761181EA7571F3
:1028D000C0F8101023EAF75181EA3671C0F8681089
:1028E00024EAF30181EAB761DDF80080D0F87030A6
:1028F000D0F8A440D0F83450D0F88C60D0F81C70D8
:10290000C0F8C0108EEAB32388EAB4748AEA357539
:1029100082EA361689EA770725EAF44181EAF3511B
:10292000C0F8A41026EAF50181EAB451C0F83410C9
:1029300027EA365181EAF551C0F88C1023EAB741F5
:1029400081EAB611C0F81C1024EA331181EAB751AC
:10295000D0F83830D0F89440D0F82450D0F85460F3
:10296000D0F8AC70C0F8701082EA736389EAB4449E
:102970008CEA757588EAF6668BEA373725EA3461A2
:1029800081EA3351C0F8541026EA750181EA746176
:10299000C0F8AC1027EA763181EAB531C0F83810BA
:1029A00023EAB77181EAF621C0F8941024EA337162
:1029B00081EAB761DDF80C90D0F80030C46DD0F832
:1029C000B050066CD0F89C70C0F8241088EA03035D
:1029D0008AEA742482EAF55589EAF6468CEA3717C2
:1029E00026EA755181EA7451C0F85C1027EA367105
:1029F00081EA7541C0F8B01023EA776181EA765127
:102A0000C0F8401024EAB35181EAF731C0F89C10B5
:102A100025EA040505990C6983EAB52384EA0301D4
:102A2000DDF81020D0F8B830D0F84C40D0F87C5009
:102A3000D0F80C60D0F86470C0F8001089EA030385
:102A40008EEAB45488EAF5458AEA366682EAF77770
:102A500025EAF45181EAF341C0F87C1026EA755169
:102A600081EA3431C0F80C1027EA362181EA757109
:102A7000C0F8641023EA374181EA3661C0F8B81023
:102A800024EA337181EA3731D0F88030D0F814402D
:102A9000D0F86C50D0F8C460D0F82C70C0F84C104E
:102AA0008BEAB35382EA740489EA05058CEAB636E8
:102AB00088EA373725EAB42181EA3331C0F82C108F
:102AC00026EAF55181EA7401C0F8801027EA7611F0
:102AD00081EA3571C0F8141023EA376181EA767112
:102AE000C0F86C1024EAB30181EAB761DDF8048014
:102AF000D0F87430D0F8A040D0F83050D0F88860CA
:102B0000D0F81870C0F8C4108CEAB32388EAF474C3
:102B10008BEA357582EA361689EA770725EAF441A9
:102B200081EA3361C0F8A01026EAB50181EA745148
:102B3000C0F8301027EA765181EAF551C0F88810C4
:102B400023EA774181EAB611C0F8181024EA73111C
:102B500081EAB751D0F83C30D0F89040D0F82050FE
:102B6000D0F85060D0F8A870C0F8741082EA73638F
:102B700089EAB4448EEA757588EAF6668AEAF72728
:102B800025EA346181EA7351C0F8501026EA7501D4
:102B900081EA7461C0F8A81027EA363181EA7531FC
:102BA000C0F83C1023EAB77181EAB621C0F8901052
:102BB00024EA737181EAF761DDF80890D0F80430F7
:102BC000846DD0F8B450466CD0F89870C0F82010DE
:102BD00088EA03038BEAB42482EAF55589EAB6460B
:102BE0008EEA771726EA755181EA3451C0F85810F9
:102BF00027EA767181EAB541C0F8B41023EA77611B
:102C000081EAB651C0F8441024EAB35181EAF731A1
:102C1000C0F8981025EAF47505994C6983EAF52304
:102C200084EA030ED0F89C30D0F84810D0F8C45095
:102C3000D0F870B0D0F820C0C0F804E083EA313397
:102C400083EAF54383EA3B1383EABC63D0F8587008
:102C5000D0F80C10D0F88450D0F830B0D0F8ACC018
:102C600087EA315787EAB51787EAFB0787EABC5737
:102C70004FEAB32383EA7756D0F8B440D0F8641013
:102C8000D0F81050D0F888B0D0F838C0CDF8006037
:102C900084EA712484EAB57484EAFB2484EABC14CF
:102CA00083EA7466D0F84030D0F8BC10D0F86C508D
:102CB000D0F81CB0D0F890C0CDF80C6083EAB143D6
:102CC00083EAF57383EABB4383EA7C0383EAB75262
:102CD000D0F80070D0F87810D0F82C50D0F8A4B00C
:102CE000D0F850C087EAB17787EAF54787EAFB67F3
:102CF00087EA3C3787EA346AD0F84440D0F8B81005
:102D0000D0F86850D0F818B0D0F894C084EAB14434
:102D100084EA050484EAFB4484EA7C0484EA070E1E
:102D2000D0F85C70D0F80810D0F88050D0F834B0EB
:102D3000D0F8A8C087EA315787EAF51787EAFB077A
:102D400087EABC574FEA775787EAF476D0F898407D
:102D5000D0F84C10D0F8C050D0F874B0D0F824C0DF
:102D6000CDF8106084EA313484EAF54484EA3B14F7
:102D700084EAFC6487EAB428D0F8B070D0F8601018
:102D8000D0F81450D0F88CB0D0F83CC0CDF8048006
:102D900087EA312787EAB57787EAFB2787EABC17F6
:102DA0004FEA776787EA7429D0F80440D0F87C109E
:102DB000D0F82850D0F8A0B0D0F854C0CDF8089082
:102DC00084EAF17484EA355484EAFB6484EA7C344E
:102DD00084EA070B83EAF47CD0F84030D0F848400E
:102DE000D0F82850D0F83060D0F83870C0F82810EB
:102DF00089EA03038CEAB45488EA35558BEA76668F
:102E000082EAF77725EA346181EA33514FEAB171FA
:102E1000C0F8281026EA755181EA74314FEA712111
:102E2000C0F8301027EA362181EA75714FEA710146
:102E3000C0F8381023EAF73181EAF6514FEAB14180
:102E4000C0F8401024EA337181EAF7214FEAB1510A
:102E5000D0F85C30D0F86440D0F86C50D0F8746092
:102E6000D0F85470C0F848108AEA735382EAB40468
:102E700089EAF5758EEAB63688EA773725EA74214D
:102E800081EA33314FEA3151C0F8541026EA3561F6
:102E900081EA74014FEA3171C0F85C1027EA7611BB
:102EA00081EA75714FEAF151C0F8641023EAF751D5
:102EB00081EA3671C0F86C1024EAF30181EAB76147
:102EC0004FEA7171DDF80080D0F89830D0F8784082
:102ED000D0F88050D0F88860D0F89070C0F87410A6
:102EE0008EEAB32388EAB4748AEA357582EA361624
:102EF00089EA770725EAF44181EAF3514FEAF16163
:102F0000C0F8781026EAF50181EAB4514FEA316140
:102F1000C0F8801027EA365181EAF5514FEA3111A5
:102F2000C0F8881023EAB74181EAB6114FEAB141EF
:102F3000C0F8901024EA331181EAB7514FEAB13159
:102F4000D0F8B430D0F8BC40D0F8C450D0F8A46069
:102F5000D0F8AC70C0F8981082EA736389EAB44480
:102F60008CEA757588EAF6668BEA373725EA3461AC
:102F700081EA33514FEA7131C0F8A41026EA750195
:102F800081EA74614FEA3131C0F8AC1027EA76313A
:102F900081EAB5314FEAF171C0F8B41023EAB77194
:102FA00081EAF6214FEA7101C0F8BC1024EA3371BE
:102FB00081EAB7614FEA7111DDF80C90D0F800306A
:102FC000846805698669076AC0F8C41088EA030343
:102FD0008AEA742482EAF55589EAF6468CEA3717BC
:102FE00026EA755181EA74514FEA7151C0F8081010
:102FF00027EA367181EA75414FEA7161C0F8101015
:1030000023EA776181EA7651C0F8181024EAB351B7
:1030100081EAF7314FEAB121C0F8201025EA040512
:1030200005998C6983EAB52384EA0301DDF8102051
:10303000D0F84430D0F84C40D0F82C50D0F8346060
:10304000D0F83C70C0F8001089EA03038EEAB4544B
:1030500088EAF5458AEA366682EAF77725EAF45186
:1030600081EAF3414FEAF171C0F82C1026EA75515C
:1030700081EA34314FEAB121C0F8341027EA362111
:1030800081EA75714FEAB101C0F83C1023EA37417B
:1030900081EA36614FEAB141C0F8441024EA337145
:1030A00081EA37314FEAB151D0F85830D0F860405A
:1030B000D0F86850D0F87060D0F85070C0F84C105C
:1030C0008BEAB35382EA740489EA05058CEAB636C2
:1030D00088EA373725EAB42181EA33314FEAF141F2
:1030E000C0F8501026EAF55181EA74014FEA3171B7
:1030F000C0F8581027EA761181EA35714FEAF1518C
:10310000C0F8601023EA376181EA76714FEAF17105
:10311000C0F8681024EAB30181EAB7614FEA71711F
:10312000DDF80480D0F89C30D0F87C40D0F8845092
:10313000D0F88C60D0F89470C0F870108CEAB3238B
:1031400088EAF4748BEA357582EA361689EA7707DD
:1031500025EAF44181EA33614FEAF161C0F87C105D
:1031600026EAB50181EA74514FEA7161C0F8841012
:1031700027EA765181EAF5514FEA3111C0F88C10F7
:1031800023EA774181EAB6114FEAF141C0F8941081
:1031900024EA731181EAB7514FEAB131D0F8B03067
:1031A000D0F8B840D0F8C050D0F8A060D0F8A870DF
:1031B000C0F89C1082EA736389EAB4448EEA75759C
:1031C00088EAF6668AEAF72725EA346181EA7351CC
:1031D0004FEA3131C0F8A01026EA750181EA746126
:1031E0004FEAF121C0F8A81027EA363181EA75319B
:1031F0004FEAF171C0F8B01023EAB77181EAB62145
:103200004FEA7101C0F8B81024EA737181EAF761DE
:103210004FEA3111DDF80890D0F80430C4684569F0
:10322000C669476AC0F8C01088EA03038BEAB42471
:1032300082EAF55589EAB6468EEA771726EA75518D
:1032400081EA34514FEAB151C0F80C1027EA767187
:1032500081EAB5414FEA7161C0F8141023EA776141
:1032600081EAB651C0F81C1024EAB35181EAF73163
:103270004FEAB121C0F8241025EAF4750599CC690C
:1032800051F8207F0591FF2F83EAF52384EA03019B
:10329000C0F804107EF43AAC06B0BDE8F09F00BF61
:1032A00080B5B8B000AFF860B9607A603B6007F1F4
:1032B00010031846FDF787FB07F110033A68796899
:1032C0001846FDF78CFB07F11003D7F8EC20D7F870
:1032D000E8101846FDF783FB07F110031846FDF7C9
:1032E0008EFB07F110031A46B968F868FDF795FBE5
:1032F00000BFE037BD4680BD80B5A4B000AF7860A8
:10330000396007F12C0360220021184603F0E0FD2C
:103310000023C7F88C3023E007F108032022396826
:10332000184603F027FED7F88C30DBB287F8283038
:1033300007F1080207F12C0021236021FDF7DAFCD8
:10334000D7F88C305B027A68134407F12C021146DF
:10335000184602F04DFED7F88C300133C7F88C3098
:10336000D7F88C30012BD7D900BF00BF9037BD46AE
:1033700080BDB0B5ADF5835D82B000AF07F16803E5
:1033800043F8640C07F1680343F8681C07F5896388
:103390004FF442620021184603F09AFD07F14803FA
:1033A0004FF480620021184603F092FD07F1680394
:1033B000603B40220021184603F08AFD07F1080314
:1033C00020211846FDF7FAFE07F1080107F108036E
:1033D00020221846FDF7D3FD07F1080207F1480344
:1033E0001146184600F0D1FB07F10803203307F51A
:1033F000835202F10802A2F5426214461D46286873
:103400006968AA68EB680FC428696969AA69EB69E9
:103410000FC407F1080207F1480107F58963184650
:1034200000F0F0FB07F168034FF42872002153F815
:10343000640C03F04DFD07F168038022002153F86E
:10344000680C03F045FD07F5896307F1680219462A
:1034500052F8640C00F0DDFA07F1480307F1680246
:10346000194652F8680C00F098FA00BF07F5835728
:103470000837BD46B0BD90B5ADF5B25D85B000AFC3
:1034800007F5CA64A4F24464206007F5CA60A0F599
:10349000C960016007F5CA61A1F24C610A6007F5D5
:1034A000CA62A2F5CA62136007F5B15303F11003B3
:1034B00020220021184603F00BFD07F5CA63A3F58F
:1034C000C96307F521621968104600F0BBFA07F5D9
:1034D000C2634FF480620021184603F0F9FC07F53F
:1034E000CA63A3F5CA631B68002B08D107F5B15363
:1034F00003F1100320211846FDF760FE0CE007F5EC
:10350000CA63A3F5CA6107F5B15000F110000123A9
:1035100020220968FDF720F807F5B15202F11002E8
:1035200007F5C26311461846FFF7E6FE07F11003E0
:103530004FF4C0620021184603F0CAFC07F5C262CE
:1035400007F5216303F1200107F11003184602F08B
:103550005DFD07F5C26407F5216303F5026207F517
:10356000CA63A3F24C6107F1100303F580602346A0
:10357000096802F081FD07F1100207F5CA63A3F2A2
:1035800044631146186800F0D8F900BF07F5B25738
:103590001437BD4690BD80B5ADF5805D86B000AFF7
:1035A00007F1180343F80C0C07F1180343F8101C3B
:1035B00007F1180343F8142C07F5C2634FF4806237
:1035C0000021184603F084FC07F118031A4607F59A
:1035D000C26352F8101C184600F0FDF907F11803F9
:1035E0001A4607F11803083B52F8141C184600F05D
:1035F000BCF907F5805303F11803A3F5C16207F185
:1036000018031046083B4FF48062194603F0B2FCE1
:1036100007F5805303F11803A3F5027207F11803AD
:10362000104603F57E734FF40072194603F0A2FCB6
:10363000002307F5805202F11402136026E007F51B
:10364000805303F11803A3F5027307F5805202F1CA
:103650001402126833F91230DB0219B207F58053F5
:1036600003F11803A3F5027307F5805202F1140267
:10367000126823F8121007F5805303F114031B6836
:10368000013307F5805202F11402136007F58053ED
:1036900003F114031B68FF2BD1D9002307F58052D7
:1036A00002F1140213604EE0002307F5805202F18C
:1036B0001002136035E007F5805303F11803A3F5FA
:1036C000C16307F5805202F114021268110207F576
:1036D000805202F1100212680A4433F912301B02C0
:1036E00018B207F5805303F11803A3F5C16307F57A
:1036F000805202F114021268110207F5805202F1A1
:10370000100212680A44014623F8121007F580538C
:1037100003F110031B68013307F5805202F1100218
:10372000136007F5805303F110031B68FF2BC2D908
:1037300007F5805303F114031B68013307F580522A
:1037400002F11402136007F5805303F114031B68A0
:10375000012BA9D907F5C26207F5216107F5616060
:10376000082301F0CDF9002307F5805202F114027D
:10377000136062E007F5805303F11803A3F50273A9
:1037800007F5805202F11402126833F912309BB22D
:1037900003F580439BB219B207F5805303F1180378
:1037A000A3F5027307F5805202F11402126823F8A0
:1037B000121007F5805303F11803A3F5027307F500
:1037C000805202F11402126833F91230DB1319B27D
:1037D00007F5805303F11803A3F5027307F5805230
:1037E00002F11402126823F8121007F5805303F156
:1037F0001803A3F5027307F5805202F11402126850
:1038000033F9123003F0010319B207F5805303F1C5
:103810001803A3F5027307F5805202F1140212682F
:1038200023F8121007F5805303F114031B680133CA
:1038300007F5805202F11402136007F5805303F17B
:1038400014031B68FF2B95D907F1180320220021D0
:1038500053F80C0C03F03CFB002307F5805202F1F7
:10386000140213605BE0002307F5805202F110029E
:10387000136042E007F1180353F80C2C07F580534E
:1038800003F114031B6813441B785AB207F58053E5
:1038900003F114031B68D90007F5805303F11003EB
:1038A0001B68194407F5805303F11803A3F502734D
:1038B00033F91130DBB2194607F5805303F11003D9
:1038C0001B6801FA03F35BB2534059B207F11803C6
:1038D00053F80C2C07F5805303F114031B681344B1
:1038E000CAB21A7007F5805303F110031B68013345
:1038F00007F5805202F11002136007F5805303F1BF
:1039000010031B68072BB5D907F5805303F1140387
:103910001B68013307F5805202F11402136007F5AA
:10392000805303F114031B681F2B9CD900BF00BFF9
:1039300007F580571837BD4680BD80B582B000AF0F
:10394000786039603B681946786800F06AFF7B68E8
:1039500003F500723B6803F580631946104600F0DA
:10396000B8FD00BF0837BD4680BD80B582B000AF4E
:10397000786039607B683968184600F070FF7B68B2
:1039800003F580623B6803F500731946104600F0AA
:1039900084FE00BF0837BD4680BD80B584B000AF4F
:1039A000786039600023FB600DE0FB689B017A685A
:1039B000D018FB685B023A681344194600F06DFFAB
:1039C000FB680133FB60FB68012BEED900BF00BF31
:1039D0001037BD4680BD80B584B000AF78603960D7
:1039E0000023FB600DE0FB685B027A68D018FB687F
:1039F0009B013A681344194600F09AFFFB680133B3
:103A0000FB60FB68012BEED900BF00BF1037BD463D
:103A100080BD80B582B000AF786039603B682022FD
:103A20001946786803F0A6FA7B6803F120023B6828
:103A300003F502631946104600F0A1FC00BF0837E9
:103A4000BD4680BD80B582B000AF786039607B68CC
:103A500020223968184603F08DFA7B6820337A6893
:103A60001146184600F00DF87B6803F502623B68CA
:103A700020331946104600F0A4FC00BF0837BD46AD
:103A800080BD80B5DEB000AF07F5BC73A3F5BA7397
:103A9000186007F5BC73A3F5BC73196007F5BC7318
:103AA000A3F5A47318464FF4A0731A46002103F03F
:103AB0000FFA07F5BC73A3F5BC7307F10C002022C5
:103AC000196803F057FA0023C7F874313FE0002368
:103AD000C7F8703132E0D7F87431DAB207F5BC7349
:103AE000A3F5B67383F82020D7F87031DAB207F562
:103AF000BC73A3F5B67383F8212007F10C0207F11C
:103B0000300022234FF4A071FDF782F8D7F874310A
:103B10009B0207F5BC72A2F5BA7212681A44D7F874
:103B200070315B02134407F130021146184600F071
:103B3000B0FAD7F870310133C7F87031D7F8703167
:103B4000012BC8D9D7F874310133C7F87431D7F8CD
:103B50007431012BBBD900BF00BF07F5BC77BD4650
:103B600080BD80B584B000AFF860B9607A603B601A
:103B70003968F86803F010F87A68B968F86801F0F5
:103B8000FDF800BF1037BD4680BD80B58EB000AFD8
:103B90007860396007F10C0322220021184603F0F7
:103BA00097F907F10C0320223968184603F0E2F96F
:103BB00000237B631EE07B6BDBB25B00DBB287F82C
:103BC0002C3000233B633B6BDBB287F82D303B6B23
:103BD00001333B637B6B5B027A68134407F10C0291
:103BE0001146184603F08EF80346002BEBD17B6B91
:103BF00001337B637B6B012BDDD900BF00BF3837FE
:103C0000BD4680BD80B584B000AFF860B9607A6011
:103C1000FB682033FA6811461846FFF732FFFB684D
:103C200003F502634FF400720021184603F050F9C7
:103C3000FB6803F50260FB6803F120017B68BA684A
:103C4000FFF78FFF00BF1037BD4680BD80B487B03F
:103C500000AFF860B9607A6000237B6100233B61AC
:103C60001EE03B695B00BA681344B3F900107B693E
:103C7000FA681344CAB21A703B695B00BA6813440D
:103C8000B3F900301B1219B27B690133FA6813448F
:103C9000CAB21A707B6902337B613B6901333B61B5
:103CA0003A697B689A42DCDB00BF00BF1C37BD4627
:103CB0005DF8047B704780B487B000AFF860B960EE
:103CC0007A6000237B6100233B6119E07B697A689D
:103CD00013441B7819B27B6901337A6813441B784B
:103CE0001BB21B021AB23B695B00F86803440A432B
:103CF00012B21A807B6902337B613B6901333B61FD
:103D00003A69BB689A42E1DB00BF00BF1C37BD4681
:103D10005DF8047B704780B5ADF5167D00AF07F503
:103D20001673A3F51573186007F51673A3F51673CC
:103D3000196007F51673A3F5047318464FF4007362
:103D40001A46002103F0C4F80023C7F854320023B8
:103D5000C7F850320023C7F84C322DE007F5167330
:103D6000A3F516731B68D7F84C2233F912301B12D7
:103D700019B207F51673A3F515731A68D7F84C3204
:103D80001344CAB21A7007F51673A3F516731B68AD
:103D9000D7F84C2233F9123003F0C00319B207F5FB
:103DA0001673A3F50473D7F84C2223F81210D7F832
:103DB0004C320133C7F84C32D7F84C32FF2BCDD9F7
:103DC00007F51673A3F51473184640231A4600210D
:103DD00003F07EF80023C7F84C3243E10023C7F814
:103DE00048322BE1D7F85022D7F848321A4407F569
:103DF0001673A3F5047333F91230D7F85412D7F8B9
:103E000048220A441B0219B207F51673A3F514736E
:103E100023F81210D7F85422D7F848321A4407F57D
:103E20001673A3F5147333F91210D7F85022D7F88C
:103E30004832134403F1100207F51673A3F5047317
:103E400033F912309B011BB2D7F85402D7F848223D
:103E500002440B4319B207F51673A3F5147323F844
:103E60001210D7F85422D7F848321A4407F51673BF
:103E7000A3F5147333F91210D7F85022D7F848324B
:103E8000134403F1200207F51673A3F5047333F905
:103E900012301B011BB2D7F85402D7F84822024453
:103EA0000B4319B207F51673A3F5147323F8121018
:103EB000D7F85422D7F848321A4407F51673A3F5F9
:103EC000147333F91210D7F85022D7F8483213443C
:103ED00003F1300207F51673A3F5047333F91230BA
:103EE0009B001BB2D7F85402D7F8482202440B4378
:103EF00019B207F51673A3F5147323F81210D7F847
:103F00005422D7F848321A4407F51673A3F51473F0
:103F100033F91210D7F85022D7F84832134403F17E
:103F2000400207F51673A3F5047333F91230D7F87E
:103F30005402D7F8482202440B4319B207F516730E
:103F4000A3F5147323F81210D7F85422D7F8483287
:103F50001A4407F51673A3F5147333F91210D7F842
:103F60005022D7F84832134403F1500207F5167374
:103F7000A3F5047333F912309B101BB2D7F8540227
:103F8000D7F8482202440B4319B207F51673A3F57C
:103F9000147323F81210D7F85422D7F848321A4471
:103FA00007F51673A3F5147333F91210D7F85022DE
:103FB000D7F84832134403F1600207F51673A3F5EE
:103FC000047333F912301B111BB2D7F85402D7F81F
:103FD000482202440B4319B207F51673A3F5147374
:103FE00023F81210D7F85422D7F848321A4407F5AC
:103FF0001673A3F5147333F91210D7F85022D7F8BB
:104000004832134403F1700207F51673A3F50473E5
:1040100033F912309B111BB2D7F85402D7F848225B
:1040200002440B4319B207F51673A3F5147323F872
:104030001210D7F848320133C7F84832D7F848325F
:104040000F2B7FF6CFAED7F854321033C7F8543267
:10405000D7F850328033C7F85032D7F84C3201339A
:10406000C7F84C32D7F84C32012B7FF6B7AE07F5C4
:104070001673A3F515731B6803F5807307F1080128
:1040800020221846FFF7E2FD00BF07F51677BD4670
:1040900080BD80B5ADF5167D00AF07F51673A3F5AD
:1040A0001573186007F51673A3F51673196007F5F5
:1040B0001673A3F5047318464FF400731A460021D3
:1040C00002F006FF0023C7F854320023C7F850322D
:1040D0000023C7F84C3219E007F51673A3F51673E1
:1040E0001A68D7F84C3213441B781BB21B0219B262
:1040F00007F51673A3F515731B68D7F84C2223F840
:104100001210D7F84C320133C7F84C32D7F84C3282
:10411000FF2BE1D907F51673A3F514731846402356
:104120001A46002102F0D4FE07F51673A3F51673A4
:104130001B6803F5807207F1080320211846FFF77A
:10414000BAFD0023C7F84C32E2E00023C7F848323A
:10415000CAE0D7F85422D7F848321A4407F5167344
:10416000A3F5147333F91230D7F85012D7F8482258
:104170000A441B1219B207F51673A3F5047323F84A
:104180001210D7F85422D7F848321A4407F516739C
:10419000A3F5147333F91230D7F85012D7F8482228
:1041A0000A4410329B1119B207F51673A3F5047374
:1041B00023F81210D7F85422D7F848321A4407F5DA
:1041C0001673A3F5147333F91230D7F85012D7F8D9
:1041D00048220A4420321B1119B207F51673A3F5C1
:1041E000047323F81210D7F85422D7F848321A442F
:1041F00007F51673A3F5147333F91230D7F850127C
:10420000D7F848220A4430329B1019B207F51673CA
:10421000A3F5047323F81210D7F85422D7F84832C4
:10422000D118D7F85022D7F84832134403F140028E
:1042300007F51673A3F5147333F9111007F5167308
:10424000A3F5047323F81210D7F85422D7F8483294
:104250001A4407F51673A3F5147333F91230D7F81F
:104260005012D7F848220A4450329B0019B207F581
:104270001673A3F5047323F81210D7F85422D7F855
:1042800048321A4407F51673A3F5147333F9123044
:10429000D7F85012D7F848220A4460321B0119B2ED
:1042A00007F51673A3F5047323F81210D7F85422F8
:1042B000D7F848321A4407F51673A3F5147333F987
:1042C0001230D7F85012D7F848220A4470329B01B6
:1042D00019B207F51673A3F5047323F81210D7F873
:1042E00048320133C7F84832D7F848320F2B7FF6EF
:1042F00030AFD7F854321033C7F85432D7F85032B1
:104300008033C7F85032D7F84C320133C7F84C32FB
:10431000D7F84C32012B7FF618AF0023C7F84C3288
:1043200023E007F51673A3F515731B68D7F84C2225
:1043300033F9122007F51673A3F50473D7F84C125E
:1043400033F9113003F0C0031BB2134319B207F560
:104350001673A3F515731B68D7F84C2223F81210B7
:10436000D7F84C320133C7F84C32D7F84C32FF2B18
:10437000D7D900BF00BF07F51677BD4680BD80B511
:1043800084B000AF786039600023FB6011E0FA6808
:1043900013469B0013449B011A467B689818FB68E0
:1043A0005B023A6813441946FFF7B5FCFB6801331A
:1043B000FB60FB68012BEAD900BF00BF1037BD4688
:1043C00080BD80B584B000AF786039600023FB60A9
:1043D00011E0FB685B027A68D018FA6813469B000C
:1043E00013449B011A463B6813441946FFF751FEDC
:1043F000FB680133FB60FB68012BEAD900BF00BFFB
:104400001037BD4680BD80B584B000AF786039609C
:104410000023FB6011E0FA6813469B001344DB01A4
:104420001A467B689818FB689B023A681344194641
:10443000FFF7A5FFFB680133FB60FB68012BEAD99E
:1044400000BF00BF1037BD4680BD80B584B000AF4F
:10445000786039600023FB6011E0FB689B027A689A
:10446000D018FA6813469B001344DB011A463B68D8
:1044700013441946FFF7A5FFFB680133FB60FB6897
:10448000012BEAD900BF00BF1037BD4680BD80B503
:1044900084B000AF786039604FF480720021786892
:1044A00002F016FD0023FB600BE07A68FB68134402
:1044B000FA68520039680A4412781A70FB680133AE
:1044C000FB60FB68FF2BF0D900BF00BF1037BD4673
:1044D00080BD80B586B000AF78603960A022002131
:1044E000786802F0F5FC00233B610023FB600023A9
:1044F0007B61A7E07A6913469B0013443B617B69AB
:10450000DB00FB603B68FA6833F912305BB203F002
:104510001F035AB2FB68591C3B6833F911305BB278
:104520005B015BB2134359B23B697A681344CAB268
:104530001A70FB685A1C3B6833F912309BB2DB10CF
:104540005BB203F003035AB2FB68991C3B6833F972
:1045500011305BB29B005BB203F07C035BB2134390
:104560005AB2FB68D91C3B6833F911305BB2DB01EE
:104570005BB2134359B23B6901337A681344CAB240
:104580001A70FB68DA1C3B6833F912309BB25B107F
:104590005BB203F00F035AB2FB68191D3B6833F995
:1045A00011305BB21B015BB2134359B23B6902335A
:1045B0007A681344CAB21A70FB681A1D3B6833F953
:1045C00012309BB21B115BB203F001035AB2FB68BD
:1045D000591D3B6833F911305BB25B005BB203F0ED
:1045E0003E035BB213435AB2FB68991D3B6833F933
:1045F00011305BB29B015BB2134359B23B69033389
:104600007A681344CAB21A70FB689A1D3B6833F982
:1046100012309BB29B105BB203F007035AB2FB68E7
:10462000D91D3B6833F911305BB2DB005BB2134339
:1046300059B23B6904337A681344CAB21A707B6971
:1046400001337B617B691F2B7FF654AF00BF00BF36
:104650001837BD4680BD80B584B000AF7860396042
:104660004FF400720021786802F032FC0023FB60F6
:104670000BE0FB685B007A6813443968FA680A4407
:1046800012781A70FB680133FB60FB68FF2BF0D9CE
:1046900000BF00BF1037BD4680BD80B586B000AFFB
:1046A000786039604FF400720021786802F010FCE5
:1046B00000233B610023FB6000237B61A8E07A6953
:1046C00013469B0013443B617B69DB00FB603B6945
:1046D0003A6813441B781BB203F01F0319B27B68BE
:1046E000FA6823F812103B693A6813441B785B0997
:1046F000DBB219B23B6901333A6813441B781BB231
:10470000DB001BB203F018031BB2FA6801320B4343
:1047100019B27B6823F812103B6901333A681344DD
:104720001B789B101BB2FA68023203F01F0319B208
:104730007B6823F812103B6901333A6813441B78F5
:10474000DB09DBB219B23B6902333A6813441B78C8
:104750001BB25B001BB203F01E031BB2FA680332EC
:104760000B4319B27B6823F812103B6902333A6895
:1047700013441B781B09DBB219B23B6903333A6857
:1047800013441B781BB21B011BB203F010031BB2B6
:10479000FA6804320B4319B27B6823F812103B69A4
:1047A00003333A6813441B785B101BB2FA68053276
:1047B00003F01F0319B27B6823F812103B6903331F
:1047C0003A6813441B789B09DBB219B23B69043386
:1047D0003A6813441B781BB29B001BB203F01C0306
:1047E0001BB2FA6806320B4319B27B6823F8121029
:1047F0003B6904333A6813441B78DB08D9B2FB6881
:10480000DA1D09B27B6823F812107B6901337B61E2
:104810007B691F2B7FF653AF00BF00BF1837BD4623
:1048200080BD80B584B000AF786039600023FB6044
:104830000DE0FB681B027A68D018FB685B023A68DF
:1048400013441946FFF723FEFB680133FB60FB6846
:10485000012BEED900BF00BF1037BD4680BD80B52B
:1048600084B000AF786039600023FB600DE0FB6826
:104870005B027A68D018FB681B023A681344194639
:10488000FFF7E9FEFB680133FB60FB68012BEED903
:1048900000BF00BF1037BD4680BD80B485B000AFFB
:1048A000786039600023BB600023FB6036E0FB6862
:1048B0009B00BB603B68BA6833F912305BB203F00F
:1048C00003035AB2BB68591C3B6833F911305BB221
:1048D0009B005BB203F00C035BB213435AB2BB689C
:1048E000991C3B6833F911305BB21B015BB203F0DA
:1048F00030035BB213435AB2BB68D91C3B6833F92F
:1049000011305BB29B015BB2134359B27A68FB680A
:104910001344CAB21A70FB680133FB60FB683F2B7B
:10492000C5D900BF00BF1437BD465DF8047B704792
:1049300080B487B000AF7860396000233B6100230A
:104940007B6165E07B699B003B610023FB603A680B
:104950007B6913441B7803F00303DBB23B733A68B3
:104960007B6913441B789B08DBB203F00303DBB2C3
:104970007B733A687B6913441B781B09DBB203F035
:104980000303DBB2BB733A687B6913441B789B0952
:10499000DBB2FB733B7B1AB23B7B5B08DBB21BB227
:1049A0005B421BB2134319B27B683A6923F81210B9
:1049B0007B7B19B27B7B5B08DBB21BB25B421BB219
:1049C0003A6901320B4319B27B6823F81210BB7BA2
:1049D00019B2BB7B5B08DBB21BB25B421BB23A690C
:1049E00002320B4319B27B6823F81210FB7B19B219
:1049F000FB7B5B08DBB21BB25B421BB23A69033242
:104A00000B4319B27B6823F812107B6901337B6179
:104A10007B693F2B96D900BF00BF1C37BD465DF8B0
:104A2000047B704780B487B000AFF860B9607A60EB
:104A300000237B6113E0BB687A6933F912309AB2C4
:104A40007B68796933F911309BB213449BB219B278
:104A5000FB687A6923F812107B6901337B617B69FB
:104A6000FF2BE8D900BF00BF1C37BD465DF8047BB3
:104A7000704780B487B000AFF860B9607A600023F7
:104A80007B6113E0BB687A6933F912309AB27B68B4
:104A9000796933F911309BB2D31A9BB219B2FB6812
:104AA0007A6923F812107B6901337B617B69FF2BE4
:104AB000E8D900BF00BF1C37BD465DF8047B7047D6
:104AC00080B586B000AFF860B9607A6000237B6182
:104AD0000EE07B695B02BA68D0187B695B027A687A
:104AE0001344FA68194601F094F97B6901337B613C
:104AF0007B69012BEDD900BF00BF1837BD4680BDD3
:104B000090B5ADF21C6D00AF07F5C364A4F20C6460
:104B1000206007F5C360A0F5C260016007F5C361BE
:104B2000A1F214610A601A4607F5C363A3F2156384
:104B30001A700023C7F8143634E00023C7F8103683
:104B400027E007F5C363A3F5C2631B68D7F81426F3
:104B50001102D7F810260A4433F912301A4607F525
:104B6000C363A3F215631B7842FA03F318B207F587
:104B7000C363A3F58163D7F814261102D7F8102672
:104B80000A44014623F81210D7F810360133C7F84B
:104B90001036D7F81036FF2BD3D9D7F81436013397
:104BA000C7F81436D7F81436012BC6D907F110030D
:104BB0004FF400720021184602F08AF907F5C3632A
:104BC000A3F2146307F5047107F110001A68FFF7E8
:104BD00077FF0023C7F810361DE007F5C363A3F580
:104BE000C163D7F8102633F912301A4607F5C363AC
:104BF000A3F215631B7802FA03F319B207F5C36336
:104C0000A3F5C163D7F8102623F81210D7F8103691
:104C10000133C7F81036D7F81036FF2BDDD907F16E
:104C2000100207F5C363A3F20C6107F5C363A3F297
:104C30000C6309681868FFF7F5FE00BF07F21C67F0
:104C4000BD4690BD80B5ADF5846D00AF07F58463BA
:104C5000A3F21443186007F58463A3F58363196016
:104C600007F58463A3F21C431A600023C7F81C34C1
:104C70007AE00023C7F8183431E00023C7F8143471
:104C800024E0D7F818349B0207F58462A2F583620A
:104C900012681344D7F81C241102D7F814240A44CC
:104CA00033F912309B1118B207F58463A3F20C4359
:104CB000D7F818241102D7F814240A44014623F81F
:104CC0001210D7F814340133C7F81434D7F8143459
:104CD000FF2BD6D9D7F818340133C7F81834D7F8D2
:104CE0001834012BC9D907F58463A3F21442D7F80D
:104CF0001C345B021268D01807F58463A3F21C43CE
:104D000007F114011A68FFF7DBFE0023C7F8183417
:104D100021E007F58463A3F214431B68D7F81C2431
:104D20001102D7F818240A4433F912309B0118B243
:104D300007F58463A3F214431B68D7F81C241102FF
:104D4000D7F818240A44014623F81210D7F818346B
:104D50000133C7F81834D7F81834FF2BD9D9D7F84E
:104D60001C340133C7F81C34D7F81C34012B80D90C
:104D700000BF00BF07F58467BD4680BD80B5ADF5B7
:104D8000C46D00AF07F5C463A3F21463186007F5A0
:104D9000C463A3F5C363196007F5C463A3F21C637E
:104DA0001A600023C7F81C3687E00023C7F81836BE
:104DB00031E00023C7F8143624E0D7F81C369B02F4
:104DC00007F5C462A2F5C36212681344D7F8182627
:104DD0001102D7F814260A4433F912309B1118B285
:104DE00007F5C463A3F20C43D7F818261102D7F8CD
:104DF00014260A44014623F81210D7F8143601335A
:104E0000C7F81436D7F81436FF2BD6D9D7F818368A
:104E10000133C7F81836D7F81836012BC9D907F16E
:104E200014034FF400720021184602F051F807F500
:104E3000C463A3F21C6307F5057107F114001A6837
:104E4000FFF73EFE0023C7F8183616E007F5C463E7
:104E5000A3F20C63D7F8182633F912309B0119B26C
:104E600007F5C463A3F20C63D7F8182623F81210D1
:104E7000D7F818360133C7F81836D7F81836FF2B8D
:104E8000E4D907F5C463A3F21462D7F81C365B02B9
:104E90001268D01807F5C463A3F21462D7F81C3661
:104EA0005B021268134407F114021946FFF7E1FD93
:104EB000D7F81C360133C7F81C36D7F81C36012B3F
:104EC0007FF673AF00BF00BF07F5C467BD4680BD66
:104ED00080B5DCB000AF07F5B873A3F5B273186006
:104EE00007F5B873A3F5B473196007F5B873A3F5A4
:104EF000B6731A6007F114037E220021184601F0F0
:104F0000E7FF07F58A733E220021184601F0E0FF13
:104F100007F1D4033E220021184601F0D9FF07F122
:104F200094033E220021184601F0D2FF07F5B87322
:104F3000A3F5B673FE220021186801F0C9FF002313
:104F4000C7F86C31EEE1D7F86C315B0007F5B87249
:104F5000A2F5B272126813441B88A7F86631D7F81D
:104F60006C3110335B0007F5B872A2F5B2721268AB
:104F700013441B88A7F86431D7F86C3120335B00E9
:104F800007F5B872A2F5B272126813441B88A7F82D
:104F90006231D7F86C3130335B0007F5B872A2F597
:104FA000B272126813441B88A7F860310023C7F857
:104FB0006831ADE1D7F868315B0007F5B872A2F54A
:104FC000B472126813441B88A7F85E31D7F86831B1
:104FD00010335B0007F5B872A2F5B472126813447F
:104FE0001B88A7F85C31D7F86C21D7F868311344D7
:104FF0005B0007F5B872A2F5B672126813441988FF
:10500000B7F86621B7F85E3112FB03F39AB2D7F80E
:105010006C01D7F8683103445B0007F5B870A0F560
:10502000B670006803440A4492B21A80D7F86C2123
:10503000D7F86831134420335B0007F5B872A2F546
:10504000B672126813441988B7F86421B7F85C3156
:1050500012FB03F39AB2D7F86C01D7F86831034416
:1050600020335B0007F5B870A0F5B6700068034404
:105070000A4492B21A80B7F85E21B7F85C31134443
:10508000A7F85A31B7F86621B7F864311344A7F886
:105090005831D7F86C21D7F8683113445B0003F519
:1050A000B8733B4433F85C1CB7F85A21B7F8583151
:1050B00012FB03F39AB2D7F86C01D7F868310344B6
:1050C0000A4492B25B0003F5B8733B4423F85C2CAE
:1050D000D7F8683120335B0007F5B872A2F5B472D7
:1050E000126813441B88A7F85A31D7F86831303357
:1050F0005B0007F5B872A2F5B472126813441B88FE
:10510000A7F85831D7F86C21D7F8683113444033E9
:105110005B0007F5B872A2F5B672126813441988DD
:10512000B7F85A21B7F8623112FB03F39AB2D7F8F5
:105130006C01D7F86831034440335B0007F5B87061
:10514000A0F5B670006803440A4492B21A80D7F8FA
:105150006C21D7F86831134460335B0007F5B872EF
:10516000A2F5B672126813441988B7F85821B7F837
:10517000603112FB03F39AB2D7F86C01D7F86831AB
:10518000034460335B0007F5B870A0F5B6700068A3
:1051900003440A4492B21A80B7F86221B7F860312A
:1051A0001344A7F85631B7F85A21B7F858311344C9
:1051B000A7F85431D7F86C21D7F8683113445B0055
:1051C00003F5B8733B4433F8DC1CB7F85621B7F845
:1051D000543112FB03F39AB2D7F86C01D7F8683157
:1051E00003440A4492B25B0003F5B8733B4423F8CE
:1051F000DC2CB7F85E21B7F85A311344A7F85E31BA
:10520000B7F86621B7F862311344A7F85A31D7F8D6
:105210006C21D7F868311A4407F5B873A3F5AE735B
:1052200033F81210B7F85E21B7F85A3112FB03F3C6
:105230009BB2D7F86C01D7F8682102440B4499B2AD
:1052400007F5B873A3F5AE7323F81210B7F85C2115
:10525000B7F858311344A7F85C31B7F86421B7F8B0
:1052600060311344A7F85831D7F86C21D7F868316A
:10527000134403F1200207F5B873A3F5AE7333F8B6
:105280001210B7F85C21B7F8583112FB03F39BB248
:10529000D7F86C01D7F86821024420320B4499B248
:1052A00007F5B873A3F5AE7323F81210B7F85E21B3
:1052B000B7F85C311344A7F85E31B7F85A21B7F854
:1052C00058311344A7F85A31D7F86C21D7F8683110
:1052D00013445B0003F5B8733B4433F89C1CB7F8E8
:1052E0005E21B7F85A3112FB03F39AB2D7F86C017A
:1052F000D7F8683103440A4492B25B0003F5B873EF
:105300003B4423F89C2CD7F868310133C7F8683147
:10531000D7F868310F2B7FF74DAED7F86C310133DA
:10532000C7F86C31D7F86C310F2B7FF70CAE002328
:10533000C7F86C317DE0D7F86C315B0003F5B873CA
:105340003B4433F89C2C07F5B873A3F5AE73D7F83C
:105350006C1133F81130D31A9AB2D7F86C3103F1CB
:10536000200107F5B873A3F5AE7333F81130D31AE3
:105370009AB2D7F86C315B0003F5B8733B4423F85D
:105380009C2CD7F86C315B0003F5B8733B4433F8C1
:105390005C2CD7F86C315B0007F5B871A1F5B671DC
:1053A00009680B441B88D31A9AB2D7F86C312033A2
:1053B0005B0007F5B871A1F5B67109680B441B884D
:1053C000D31A9AB2D7F86C315B0003F5B8733B443B
:1053D00023F85C2CD7F86C315B0003F5B8733B44C1
:1053E00033F8DC2CD7F86C3140335B0007F5B8712B
:1053F000A1F5B67109680B441B88D31A9AB2D7F885
:105400006C3160335B0007F5B871A1F5B6710968BE
:105410000B441B88D31A9AB2D7F86C315B0003F5A2
:10542000B8733B4423F8DC2CD7F86C310133C7F850
:105430006C31D7F86C311E2B7FF77DAF0023C7F896
:105440006C3161E0D7F86C3103F1100207F5B873E5
:10545000A3F5AE7333F81210D7F86C315B0003F587
:10546000B8733B4433F89C3CD7F86C2110320B44A2
:1054700099B207F5B873A3F5AE7323F81210D7F8F5
:105480006C3110335B0007F5B872A2F5B672126882
:1054900013441988D7F86C315B0003F5B8733B44AB
:1054A00033F85C2CD7F86C3110335B0007F5B8701B
:1054B000A0F5B670006803440A4492B21A80D7F887
:1054C0006C3150335B0007F5B872A2F5B672126802
:1054D00013441988D7F86C315B0003F5B8733B446B
:1054E00033F8DC2CD7F86C3150335B0007F5B8701B
:1054F000A0F5B670006803440A4492B21A80D7F847
:105500006C310133C7F86C31D7F86C311E2B99DD43
:105510000023C7F86C312DE007F5B873A3F5AE731F
:10552000D7F86C2133F81220D7F86C315B0007F5FF
:10553000B871A1F5B67109680B441B88D31A9AB2E9
:10554000D7F86C3140335B0007F5B871A1F5B6713F
:1055500009680B441B88D31A99B207F5B873A3F5F1
:10556000AE73D7F86C2123F81210D7F86C310133E1
:10557000C7F86C31D7F86C313E2BCDDD0023C7F86E
:105580006C3124E0D7F86C3120335B0007F5B8723A
:10559000A2F5B67212681344198807F5B873A3F51B
:1055A000AE73D7F86C2133F81220D7F86C31203362
:1055B0005B0007F5B870A0F5B670006803440A44B4
:1055C00092B21A80D7F86C310133C7F86C31D7F832
:1055D0006C313E2BD6DD00BF00BF07F5B877BD4666
:1055E00080BD80B5ADF6586D00AF07F65863A3F6E1
:1055F0004C63186007F65863A3F56563196007F6F6
:105600005863A3F654631A604AF6AB23A7F84E3EDC
:1056100048F63963A7F84C3E4EF6EF63A7F84A3ECA
:1056200007F65863A3F644031846FE231A460021E2
:1056300001F04EFC07F65863A3F644131846FE2308
:105640001A46002101F044FC07F65863A3F64423F0
:105650001846FE231A46002101F03AFC07F658636B
:10566000A3F644331846FE231A46002101F030FC0D
:1056700007F65863A3F644431846FE231A46002152
:1056800001F026FC07F65863A3F644531846FE23A0
:105690001A46002101F01CFC07F65863A3F6446388
:1056A0001846FE231A46002101F012FC07F6586343
:1056B000A3F64C631B68C7F8443E07F65863A3F68D
:1056C0004C631B688033C7F8403E07F65863A3F667
:1056D0004C631B6803F58073C7F83C3E07F65863BC
:1056E000A3F64C631B6803F5C073C7F8383E07F692
:1056F0005863A3F565631B68C7F8343E07F6586323
:10570000A3F565631B688033C7F8303E07F658631E
:10571000A3F565631B6803F58073C7F82C3E07F695
:105720005863A3F565631B6803F5C073C7F8283E8B
:1057300007F65863A3F654631B68C7F8243E00239A
:10574000C7F8503EC1E0D7F8503E5B00D7F8442E72
:1057500013441B88A7F8223ED7F8503E5B00D7F8C9
:10576000402E13441B88A7F8203ED7F8503E5B001C
:10577000D7F83C2E13441B88A7F81E3ED7F8503E9E
:105780005B00D7F8382E13441B88A7F81C3EB7F8E7
:10579000222EB7F81E3E1344A7F81A3EB7F8202E63
:1057A000B7F81C3E1344A7F8183EB7F81A2EB7F8FE
:1057B000183E1344A7F8163EB7F81A2EB7F8183E4D
:1057C000D31AA7F8143E07F65863A3F5E273D7F887
:1057D000502EB7F8161E23F8121007F65863A3F5DB
:1057E0001173D7F8502EB7F8141E23F81210B7F81B
:1057F000223E9B009AB2B7F81E3E13449BB25B0058
:10580000A7F81A3EB7F8203E9B009AB2B7F81C3EA4
:105810001344A7F8183EB7F81A2EB7F8183E1344E9
:10582000A7F8163EB7F81A2EB7F8183ED31AA7F8FD
:10583000143E07F65863A3F53173D7F8502EB7F826
:10584000161E23F8121007F65863A3F55173D7F804
:10585000502EB7F8141E23F81210B7F81C3EDB00C8
:105860009AB2B7F81E3E9B009BB213449AB2B7F8A7
:10587000203E5B009BB213449AB2B7F8223E134419
:10588000A7F81A3E07F65863A3F5A273D7F8502E6F
:10589000B7F81A1E23F8121007F65863A3F57173B0
:1058A000D7F8502EB7F8221E23F81210D7F8503E22
:1058B0005B0003F658633B44B7F81C2E23F8C42C56
:1058C000D7F8503E0133C7F8503ED7F8503E3F2B33
:1058D0007FF739AF0023C7F8503EC1E0D7F8503EFC
:1058E0005B00D7F8342E13441B88A7F8223ED7F864
:1058F000503E5B00D7F8302E13441B88A7F8203E9B
:10590000D7F8503E5B00D7F82C2E13441B88A7F81D
:105910001E3ED7F8503E5B00D7F8282E13441B8854
:10592000A7F81C3EB7F8222EB7F81E3E1344A7F87E
:105930001A3EB7F8202EB7F81C3E1344A7F8183EBD
:10594000B7F81A2EB7F8183E1344A7F8163EB7F862
:105950001A2EB7F8183ED31AA7F8143E07F6586364
:10596000A3F24453D7F8502EB7F8161E23F812109E
:1059700007F65863A3F2C453D7F8502EB7F8141E95
:1059800023F81210B7F8223E9B009AB2B7F81E3ED9
:1059900013449BB25B00A7F81A3EB7F8203E9B0069
:1059A0009AB2B7F81C3E1344A7F8183EB7F81A2E5F
:1059B000B7F8183E1344A7F8163EB7F81A2EB7F8F2
:1059C000183ED31AA7F8143E07F65863A3F24463AF
:1059D000D7F8502EB7F8161E23F8121007F65863A2
:1059E000A3F2C463D7F8502EB7F8141E23F8121090
:1059F000B7F81C3EDB009AB2B7F81E3E9B009BB284
:105A000013449AB2B7F8203E5B009BB213449AB29B
:105A1000B7F8223E1344A7F81A3E07F65863A3F2DC
:105A2000C443D7F8502EB7F81A1E23F8121007F601
:105A30005863A3F24473D7F8502EB7F8221E23F808
:105A4000121007F65863A3F24443D7F8502EB7F864
:105A50001C1E23F81210D7F8503E0133C7F8503EF1
:105A6000D7F8503E3F2B7FF739AF07F2146207F6A5
:105A7000142107F694531846FFF72AFA07F2145236
:105A800007F6941107F614531846FFF721FA07F2A8
:105A9000144207F6141107F694431846FFF718FA54
:105AA00007F5457207F6940107F614431846FFF709
:105AB0000FFA07F5057207F6140107F69433184636
:105AC000FFF706FA07F58A7207F2947107F61433A6
:105AD0001846FFF7FDF907F1140207F2147107F6F3
:105AE00094231846FFF7F4F90023C7F8543E85E1E4
:105AF00007F65863A3F64403D7F8542E33F8123050
:105B0000A7F8223E07F65863A3F64413D7F8542E9D
:105B100033F81230A7F8203E07F65863A3F6442363
:105B2000D7F8542E33F81230A7F81E3E07F6586304
:105B3000A3F64433D7F8542E33F81230A7F81C3E9E
:105B400007F65863A3F64443D7F8542E33F81230BF
